{
  "contractName": "accessAuth",
  "abi": [
    {
      "anonymous": false,
      "inputs": [
        {
          "indexed": true,
          "internalType": "address",
          "name": "_buyer",
          "type": "address"
        },
        {
          "indexed": false,
          "internalType": "uint256",
          "name": "price",
          "type": "uint256"
        },
        {
          "indexed": false,
          "internalType": "string[]",
          "name": "BoughtResources",
          "type": "string[]"
        }
      ],
      "name": "CapabilityListUpdated",
      "type": "event"
    },
    {
      "anonymous": false,
      "inputs": [
        {
          "indexed": true,
          "internalType": "address",
          "name": "previousOwner",
          "type": "address"
        },
        {
          "indexed": true,
          "internalType": "address",
          "name": "newOwner",
          "type": "address"
        }
      ],
      "name": "OwnershipTransferred",
      "type": "event"
    },
    {
      "anonymous": false,
      "inputs": [
        {
          "components": [
            {
              "internalType": "bytes2",
              "name": "from",
              "type": "bytes2"
            },
            {
              "internalType": "bytes2",
              "name": "to",
              "type": "bytes2"
            },
            {
              "internalType": "bytes32",
              "name": "token",
              "type": "bytes32"
            },
            {
              "internalType": "bytes32",
              "name": "label",
              "type": "bytes32"
            }
          ],
          "indexed": false,
          "internalType": "struct accessAuth.updateData[]",
          "name": "",
          "type": "tuple[]"
        }
      ],
      "name": "UpdateData",
      "type": "event"
    },
    {
      "inputs": [],
      "name": "owner",
      "outputs": [
        {
          "internalType": "address",
          "name": "",
          "type": "address"
        }
      ],
      "stateMutability": "view",
      "type": "function"
    },
    {
      "inputs": [],
      "name": "renounceOwnership",
      "outputs": [],
      "stateMutability": "nonpayable",
      "type": "function"
    },
    {
      "inputs": [
        {
          "internalType": "address",
          "name": "newOwner",
          "type": "address"
        }
      ],
      "name": "transferOwnership",
      "outputs": [],
      "stateMutability": "nonpayable",
      "type": "function"
    },
    {
      "inputs": [
        {
          "internalType": "string[]",
          "name": "_resources",
          "type": "string[]"
        }
      ],
      "name": "buyResources",
      "outputs": [],
      "stateMutability": "payable",
      "type": "function"
    },
    {
      "inputs": [
        {
          "components": [
            {
              "internalType": "bytes2",
              "name": "from",
              "type": "bytes2"
            },
            {
              "internalType": "bytes2",
              "name": "to",
              "type": "bytes2"
            },
            {
              "internalType": "bytes32",
              "name": "token",
              "type": "bytes32"
            },
            {
              "internalType": "bytes32",
              "name": "label",
              "type": "bytes32"
            }
          ],
          "internalType": "struct accessAuth.updateData[]",
          "name": "_updateData",
          "type": "tuple[]"
        }
      ],
      "name": "updateCatalogue",
      "outputs": [],
      "stateMutability": "nonpayable",
      "type": "function"
    },
    {
      "inputs": [
        {
          "internalType": "address",
          "name": "_buyer",
          "type": "address"
        }
      ],
      "name": "getCapabilityListByAddress",
      "outputs": [
        {
          "internalType": "string[]",
          "name": "",
          "type": "string[]"
        }
      ],
      "stateMutability": "view",
      "type": "function"
    },
    {
      "inputs": [
        {
          "internalType": "bytes2",
          "name": "_from",
          "type": "bytes2"
        }
      ],
      "name": "getTokens",
      "outputs": [
        {
          "components": [
            {
              "internalType": "bytes2",
              "name": "id",
              "type": "bytes2"
            },
            {
              "internalType": "bytes32",
              "name": "token",
              "type": "bytes32"
            }
          ],
          "internalType": "struct accessAuth.node[]",
          "name": "",
          "type": "tuple[]"
        }
      ],
      "stateMutability": "view",
      "type": "function"
    },
    {
      "inputs": [
        {
          "internalType": "bytes32",
          "name": "_edge",
          "type": "bytes32"
        }
      ],
      "name": "getLabel",
      "outputs": [
        {
          "internalType": "bytes32",
          "name": "",
          "type": "bytes32"
        }
      ],
      "stateMutability": "view",
      "type": "function"
    }
  ],
  "bytecode": "0x608060405234801561001057600080fd5b5061002d61002261003260201b60201c565b61003a60201b60201c565b6100fe565b600033905090565b60008060009054906101000a900473ffffffffffffffffffffffffffffffffffffffff169050816000806101000a81548173ffffffffffffffffffffffffffffffffffffffff021916908373ffffffffffffffffffffffffffffffffffffffff1602179055508173ffffffffffffffffffffffffffffffffffffffff168173ffffffffffffffffffffffffffffffffffffffff167f8be0079c531659141344cd1fd0a4f28419497f9722a3daafe3b4186f6b6457e060405160405180910390a35050565b611adf8061010d6000396000f3fe60806040526004361061007b5760003560e01c80637c52f1b51161004e5780637c52f1b51461013a5780638da5cb5b14610156578063e1fb6c2e14610181578063f2fde38b146101be5761007b565b806306e53709146100805780635330c1b5146100bd578063715018a6146100fa5780637afb20bd14610111575b600080fd5b34801561008c57600080fd5b506100a760048036038101906100a29190610ede565b6101e7565b6040516100b49190611066565b60405180910390f35b3480156100c957600080fd5b506100e460048036038101906100df91906110be565b6102ff565b6040516100f191906110fa565b60405180910390f35b34801561010657600080fd5b5061010f61031c565b005b34801561011d57600080fd5b5061013860048036038101906101339190611332565b6103a4565b005b610154600480360381019061014f9190611511565b610875565b005b34801561016257600080fd5b5061016b6109c9565b6040516101789190611569565b60405180910390f35b34801561018d57600080fd5b506101a860048036038101906101a39190611584565b6109f2565b6040516101b591906116ad565b60405180910390f35b3480156101ca57600080fd5b506101e560048036038101906101e09190610ede565b610b09565b005b6060600260008373ffffffffffffffffffffffffffffffffffffffff1673ffffffffffffffffffffffffffffffffffffffff168152602001908152602001600020805480602002602001604051908101604052809291908181526020016000905b828210156102f4578382906000526020600020018054610267906116fe565b80601f0160208091040260200160405190810160405280929190818152602001828054610293906116fe565b80156102e05780601f106102b5576101008083540402835291602001916102e0565b820191906000526020600020905b8154815290600101906020018083116102c357829003601f168201915b505050505081526020019060010190610248565b505050509050919050565b600060036000838152602001908152602001600020549050919050565b610324610c00565b73ffffffffffffffffffffffffffffffffffffffff166103426109c9565b73ffffffffffffffffffffffffffffffffffffffff1614610398576040517f08c379a000000000000000000000000000000000000000000000000000000000815260040161038f9061178c565b60405180910390fd5b6103a26000610c08565b565b6103ac610c00565b73ffffffffffffffffffffffffffffffffffffffff166103ca6109c9565b73ffffffffffffffffffffffffffffffffffffffff1614610420576040517f08c379a00000000000000000000000000000000000000000000000000000000081526004016104179061178c565b60405180910390fd5b610428610d8b565b600080600090505b835181101561083857600084828151811061044e5761044d6117ac565b5b60200260200101516000015190506000858381518110610471576104706117ac565b5b60200260200101516020015190508085600001907dffffffffffffffffffffffffffffffffffffffffffffffffffffffffffff191690817dffffffffffffffffffffffffffffffffffffffffffffffffffffffffffff1916815250508583815181106104e0576104df6117ac565b5b60200260200101516040015185602001818152505061060c60016000847dffffffffffffffffffffffffffffffffffffffffffffffffffffffffffff19167dffffffffffffffffffffffffffffffffffffffffffffffffffffffffffff19168152602001908152602001600020805480602002602001604051908101604052809291908181526020016000905b8282101561060257838290600052602060002090600202016040518060400160405290816000820160009054906101000a900460f01b7dffffffffffffffffffffffffffffffffffffffffffffffffffffffffffff19167dffffffffffffffffffffffffffffffffffffffffffffffffffffffffffff191681526020016001820154815250508152602001906001019061056d565b5050505086610ccc565b809550819650505060016000837dffffffffffffffffffffffffffffffffffffffffffffffffffffffffffff19167dffffffffffffffffffffffffffffffffffffffffffffffffffffffffffff19168152602001908152602001600020805490508411156107265760016000837dffffffffffffffffffffffffffffffffffffffffffffffffffffffffffff19167dffffffffffffffffffffffffffffffffffffffffffffffffffffffffffff1916815260200190815260200160002085908060018154018082558091505060019003906000526020600020906002020160009091909190915060008201518160000160006101000a81548161ffff021916908360f01c02179055506020820151816001015550506107cc565b8460016000847dffffffffffffffffffffffffffffffffffffffffffffffffffffffffffff19167dffffffffffffffffffffffffffffffffffffffffffffffffffffffffffff19168152602001908152602001600020858154811061078e5761078d6117ac565b5b906000526020600020906002020160008201518160000160006101000a81548161ffff021916908360f01c0217905550602082015181600101559050505b8583815181106107df576107de6117ac565b5b60200260200101516060015160036000837dffffffffffffffffffffffffffffffffffffffffffffffffffffffffffff19168152602001908152602001600020819055505050808061083090611814565b915050610430565b507fb1a8dcbfaf80fee6a06965c784d520781563d46f100e5f5cf213d3bd8f74ff6b836040516108689190611960565b60405180910390a1505050565b60005b815181101561092757600260003373ffffffffffffffffffffffffffffffffffffffff1673ffffffffffffffffffffffffffffffffffffffff1681526020019081526020016000208282815181106108d3576108d26117ac565b5b6020026020010151908060018154018082558091505060019003906000526020600020016000909190919091509080519060200190610913929190610dc9565b50808061091f90611814565b915050610878565b506109306109c9565b73ffffffffffffffffffffffffffffffffffffffff166108fc349081150290604051600060405180830381858888f19350505050158015610975573d6000803e3d6000fd5b503373ffffffffffffffffffffffffffffffffffffffff167f126415ed4f65b665b44f25dacca1fdd7917295e2b4d3bb67d08775ab5f3e646e34836040516109be929190611991565b60405180910390a250565b60008060009054906101000a900473ffffffffffffffffffffffffffffffffffffffff16905090565b606060016000837dffffffffffffffffffffffffffffffffffffffffffffffffffffffffffff19167dffffffffffffffffffffffffffffffffffffffffffffffffffffffffffff19168152602001908152602001600020805480602002602001604051908101604052809291908181526020016000905b82821015610afe57838290600052602060002090600202016040518060400160405290816000820160009054906101000a900460f01b7dffffffffffffffffffffffffffffffffffffffffffffffffffffffffffff19167dffffffffffffffffffffffffffffffffffffffffffffffffffffffffffff1916815260200160018201548152505081526020019060010190610a69565b505050509050919050565b610b11610c00565b73ffffffffffffffffffffffffffffffffffffffff16610b2f6109c9565b73ffffffffffffffffffffffffffffffffffffffff1614610b85576040517f08c379a0000000000000000000000000000000000000000000000000000000008152600401610b7c9061178c565b60405180910390fd5b600073ffffffffffffffffffffffffffffffffffffffff168173ffffffffffffffffffffffffffffffffffffffff1603610bf4576040517f08c379a0000000000000000000000000000000000000000000000000000000008152600401610beb90611a33565b60405180910390fd5b610bfd81610c08565b50565b600033905090565b60008060009054906101000a900473ffffffffffffffffffffffffffffffffffffffff169050816000806101000a81548173ffffffffffffffffffffffffffffffffffffffff021916908373ffffffffffffffffffffffffffffffffffffffff1602179055508173ffffffffffffffffffffffffffffffffffffffff168173ffffffffffffffffffffffffffffffffffffffff167f8be0079c531659141344cd1fd0a4f28419497f9722a3daafe3b4186f6b6457e060405160405180910390a35050565b610cd4610d8b565b600080600090505b8451811015610d6f5783600001517dffffffffffffffffffffffffffffffffffffffffffffffffffffffffffff1916858281518110610d1e57610d1d6117ac565b5b6020026020010151600001517dffffffffffffffffffffffffffffffffffffffffffffffffffffffffffff191603610d5c5783819250925050610d84565b8080610d6790611814565b915050610cdc565b508260018551610d7f9190611a53565b915091505b9250929050565b604051806040016040528060007dffffffffffffffffffffffffffffffffffffffffffffffffffffffffffff19168152602001600080191681525090565b828054610dd5906116fe565b90600052602060002090601f016020900481019282610df75760008555610e3e565b82601f10610e1057805160ff1916838001178555610e3e565b82800160010185558215610e3e579182015b82811115610e3d578251825591602001919060010190610e22565b5b509050610e4b9190610e4f565b5090565b5b80821115610e68576000816000905550600101610e50565b5090565b6000604051905090565b600080fd5b600080fd5b600073ffffffffffffffffffffffffffffffffffffffff82169050919050565b6000610eab82610e80565b9050919050565b610ebb81610ea0565b8114610ec657600080fd5b50565b600081359050610ed881610eb2565b92915050565b600060208284031215610ef457610ef3610e76565b5b6000610f0284828501610ec9565b91505092915050565b600081519050919050565b600082825260208201905092915050565b6000819050602082019050919050565b600081519050919050565b600082825260208201905092915050565b60005b83811015610f71578082015181840152602081019050610f56565b83811115610f80576000848401525b50505050565b6000601f19601f8301169050919050565b6000610fa282610f37565b610fac8185610f42565b9350610fbc818560208601610f53565b610fc581610f86565b840191505092915050565b6000610fdc8383610f97565b905092915050565b6000602082019050919050565b6000610ffc82610f0b565b6110068185610f16565b93508360208202850161101885610f27565b8060005b8581101561105457848403895281516110358582610fd0565b945061104083610fe4565b925060208a0199505060018101905061101c565b50829750879550505050505092915050565b600060208201905081810360008301526110808184610ff1565b905092915050565b6000819050919050565b61109b81611088565b81146110a657600080fd5b50565b6000813590506110b881611092565b92915050565b6000602082840312156110d4576110d3610e76565b5b60006110e2848285016110a9565b91505092915050565b6110f481611088565b82525050565b600060208201905061110f60008301846110eb565b92915050565b600080fd5b7f4e487b7100000000000000000000000000000000000000000000000000000000600052604160045260246000fd5b61115282610f86565b810181811067ffffffffffffffff821117156111715761117061111a565b5b80604052505050565b6000611184610e6c565b90506111908282611149565b919050565b600067ffffffffffffffff8211156111b0576111af61111a565b5b602082029050602081019050919050565b600080fd5b600080fd5b60007fffff00000000000000000000000000000000000000000000000000000000000082169050919050565b611200816111cb565b811461120b57600080fd5b50565b60008135905061121d816111f7565b92915050565b600060808284031215611239576112386111c6565b5b611243608061117a565b905060006112538482850161120e565b60008301525060206112678482850161120e565b602083015250604061127b848285016110a9565b604083015250606061128f848285016110a9565b60608301525092915050565b60006112ae6112a984611195565b61117a565b905080838252602082019050608084028301858111156112d1576112d06111c1565b5b835b818110156112fa57806112e68882611223565b8452602084019350506080810190506112d3565b5050509392505050565b600082601f83011261131957611318611115565b5b813561132984826020860161129b565b91505092915050565b60006020828403121561134857611347610e76565b5b600082013567ffffffffffffffff81111561136657611365610e7b565b5b61137284828501611304565b91505092915050565b600067ffffffffffffffff8211156113965761139561111a565b5b602082029050602081019050919050565b600080fd5b600067ffffffffffffffff8211156113c7576113c661111a565b5b6113d082610f86565b9050602081019050919050565b82818337600083830152505050565b60006113ff6113fa846113ac565b61117a565b90508281526020810184848401111561141b5761141a6113a7565b5b6114268482856113dd565b509392505050565b600082601f83011261144357611442611115565b5b81356114538482602086016113ec565b91505092915050565b600061146f61146a8461137b565b61117a565b90508083825260208201905060208402830185811115611492576114916111c1565b5b835b818110156114d957803567ffffffffffffffff8111156114b7576114b6611115565b5b8086016114c4898261142e565b85526020850194505050602081019050611494565b5050509392505050565b600082601f8301126114f8576114f7611115565b5b813561150884826020860161145c565b91505092915050565b60006020828403121561152757611526610e76565b5b600082013567ffffffffffffffff81111561154557611544610e7b565b5b611551848285016114e3565b91505092915050565b61156381610ea0565b82525050565b600060208201905061157e600083018461155a565b92915050565b60006020828403121561159a57611599610e76565b5b60006115a88482850161120e565b91505092915050565b600081519050919050565b600082825260208201905092915050565b6000819050602082019050919050565b6115e6816111cb565b82525050565b6115f581611088565b82525050565b60408201600082015161161160008501826115dd565b50602082015161162460208501826115ec565b50505050565b600061163683836115fb565b60408301905092915050565b6000602082019050919050565b600061165a826115b1565b61166481856115bc565b935061166f836115cd565b8060005b838110156116a0578151611687888261162a565b975061169283611642565b925050600181019050611673565b5085935050505092915050565b600060208201905081810360008301526116c7818461164f565b905092915050565b7f4e487b7100000000000000000000000000000000000000000000000000000000600052602260045260246000fd5b6000600282049050600182168061171657607f821691505b602082108103611729576117286116cf565b5b50919050565b600082825260208201905092915050565b7f4f776e61626c653a2063616c6c6572206973206e6f7420746865206f776e6572600082015250565b600061177660208361172f565b915061178182611740565b602082019050919050565b600060208201905081810360008301526117a581611769565b9050919050565b7f4e487b7100000000000000000000000000000000000000000000000000000000600052603260045260246000fd5b7f4e487b7100000000000000000000000000000000000000000000000000000000600052601160045260246000fd5b6000819050919050565b600061181f8261180a565b91507fffffffffffffffffffffffffffffffffffffffffffffffffffffffffffffffff8203611851576118506117db565b5b600182019050919050565b600081519050919050565b600082825260208201905092915050565b6000819050602082019050919050565b60808201600082015161189e60008501826115dd565b5060208201516118b160208501826115dd565b5060408201516118c460408501826115ec565b5060608201516118d760608501826115ec565b50505050565b60006118e98383611888565b60808301905092915050565b6000602082019050919050565b600061190d8261185c565b6119178185611867565b935061192283611878565b8060005b8381101561195357815161193a88826118dd565b9750611945836118f5565b925050600181019050611926565b5085935050505092915050565b6000602082019050818103600083015261197a8184611902565b905092915050565b61198b8161180a565b82525050565b60006040820190506119a66000830185611982565b81810360208301526119b88184610ff1565b90509392505050565b7f4f776e61626c653a206e6577206f776e657220697320746865207a65726f206160008201527f6464726573730000000000000000000000000000000000000000000000000000602082015250565b6000611a1d60268361172f565b9150611a28826119c1565b604082019050919050565b60006020820190508181036000830152611a4c81611a10565b9050919050565b6000611a5e8261180a565b9150611a698361180a565b9250827fffffffffffffffffffffffffffffffffffffffffffffffffffffffffffffffff03821115611a9e57611a9d6117db565b5b82820190509291505056fea2646970667358221220c2a33fa65d29aab5643da4b32557df91f2794213dfbd10ec490e0719c493c7d064736f6c634300080d0033",
  "immutableReferences": {},
  "source": "// SPDX-License-Identifier: GPL-3.0\r\npragma solidity >=0.7.0 <0.9.0;\r\nimport \"@openzeppelin/contracts/access/Ownable.sol\";\r\n\r\ncontract accessAuth is Ownable(){\r\n\r\n    \r\n    struct updateData{\r\n        bytes2 from;\r\n        bytes2 to;\r\n        bytes32 token;\r\n        bytes32 label;\r\n    }\r\n\r\n    struct node{\r\n        bytes2 id;\r\n        bytes32 token;\r\n    }\r\n\r\n    mapping(bytes2 => node[]) catalogue;\r\n    mapping(address => string[]) capabilityList;\r\n    mapping(bytes32 => bytes32) labels;\r\n\r\n    event CapabilityListUpdated(\r\n        address indexed _buyer,\r\n        uint price,\r\n        string[] BoughtResources\r\n    );\r\n\r\n    event UpdateData(updateData[]);\r\n\r\n\r\n    /** \r\n       @notice Updates a user's capability list (after a payment) adding the new purchased resources to the list. The ETH tokens are directly transfered to the owner of the contract. The capability list is a list of strings where a string identifies a resource\r\n       @param _resources List of strings\r\n    */\r\n    function buyResources(string[] memory _resources) external payable {\r\n        //string[] memory oldCap = capabilityList[msg.sender];\r\n\r\n        for(uint i=0; i < _resources.length; i++){\r\n            capabilityList[msg.sender].push(_resources[i]); \r\n        }\r\n        \r\n        payable(owner()).transfer(msg.value);\r\n\r\n        emit CapabilityListUpdated(msg.sender, msg.value,_resources);\r\n    }\r\n\r\n\r\n    /**\r\n        @notice Thanks to the changes in the local KDS the catalog is updated allowing a buyer to access the recources according to his capability list. It also adds the labels for the key derivation.\r\n        @param _updateData List of tuple of the form: (from,to,token,label)\r\n     */\r\n    function updateCatalogue(updateData[] memory _updateData) onlyOwner() external{\r\n        node memory tempNode;\r\n        uint idx;\r\n\r\n        for(uint i=0; i < _updateData.length; i++){\r\n            bytes2 from = _updateData[i].from;\r\n            bytes2 to = _updateData[i].to;\r\n\r\n            tempNode.id = to;\r\n            tempNode.token = _updateData[i].token;\r\n            (tempNode,idx) = _updateElementsInNode(catalogue[from],tempNode);\r\n\r\n            if(idx > catalogue[from].length){\r\n                catalogue[from].push(tempNode);\r\n            }else{\r\n                catalogue[from][idx] = tempNode;\r\n            }\r\n\r\n            labels[to] = _updateData[i].label;\r\n        }\r\n\r\n        emit UpdateData(_updateData);\r\n    }\r\n\r\n    /**\r\n        @notice A node can have a bunch of nodes connected to it. This function tries to find if a new node (_data) is already connected and then the value is changed, otherwise it must be pushed as a new node.\r\n        @param _node List of nodes connected to a parent node. For example the node \"abc\" may be connected to the nodes \"a,b,c\"\r\n        @param _data Data of a node that needs to be changed or added\r\n        @return A tuple with the node and the position index \r\n    */\r\n    function _updateElementsInNode(node[] memory _node,node memory _data) private pure returns(node memory,uint){\r\n        for(uint i=0; i < _node.length; i++){\r\n            if(_node[i].id == _data.id){\r\n                //_node[i].token = _data.token;\r\n                return (_data,i);\r\n            }\r\n        }\r\n\r\n        return (_data,_node.length+1);\r\n    }\r\n\r\n    function getCapabilityListByAddress(address _buyer) external view returns(string[] memory) {\r\n        return capabilityList[_buyer];\r\n    }\r\n\r\n    function getTokens(bytes2 _from) external view returns(node[] memory){\r\n        return catalogue[_from];\r\n    }\r\n\r\n    function getLabel(bytes32 _edge) external view returns(bytes32){\r\n        return labels[_edge];\r\n    }\r\n\r\n\r\n}",
  "sourcePath": "D:\\Users\\richi\\Desktop\\DataMarketplace\\smart-contract\\contracts\\accessAuth.sol",
  "compiler": {
    "name": "solc",
    "version": "0.8.13+commit.abaa5c0e.Emscripten.clang"
  },
  "schemaVersion": "3.4.7",
  "updatedAt": "2022-05-16T08:43:57.089Z",
  "devdoc": {
    "kind": "dev",
    "methods": {
      "buyResources(string[])": {
        "params": {
          "_resources": "List of strings"
        }
      },
      "owner()": {
        "details": "Returns the address of the current owner."
      },
      "renounceOwnership()": {
        "details": "Leaves the contract without owner. It will not be possible to call `onlyOwner` functions anymore. Can only be called by the current owner. NOTE: Renouncing ownership will leave the contract without an owner, thereby removing any functionality that is only available to the owner."
      },
      "transferOwnership(address)": {
        "details": "Transfers ownership of the contract to a new account (`newOwner`). Can only be called by the current owner."
      },
      "updateCatalogue((bytes2,bytes2,bytes32,bytes32)[])": {
        "params": {
          "_updateData": "List of tuple of the form: (from,to,token,label)"
        }
      }
    },
    "version": 1
  },
  "userdoc": {
    "kind": "user",
    "methods": {
      "buyResources(string[])": {
        "notice": "Updates a user's capability list (after a payment) adding the new purchased resources to the list. The ETH tokens are directly transfered to the owner of the contract. The capability list is a list of strings where a string identifies a resource"
      },
      "updateCatalogue((bytes2,bytes2,bytes32,bytes32)[])": {
        "notice": "Thanks to the changes in the local KDS the catalog is updated allowing a buyer to access the recources according to his capability list. It also adds the labels for the key derivation."
      }
    },
    "version": 1
  }
}