{
  "contractName": "accessAuth",
  "abi": [
    {
      "anonymous": false,
      "inputs": [
        {
          "components": [
            {
              "internalType": "bytes32",
              "name": "from",
              "type": "bytes32"
            },
            {
              "internalType": "bytes32",
              "name": "to",
              "type": "bytes32"
            },
            {
              "internalType": "bytes32",
              "name": "token",
              "type": "bytes32"
            }
          ],
          "indexed": false,
          "internalType": "struct accessAuth.catalogueEntry[]",
          "name": "_resources",
          "type": "tuple[]"
        }
      ],
      "name": "CatalogueUpdated",
      "type": "event"
    },
    {
      "anonymous": false,
      "inputs": [
        {
          "indexed": true,
          "internalType": "address",
          "name": "previousOwner",
          "type": "address"
        },
        {
          "indexed": true,
          "internalType": "address",
          "name": "newOwner",
          "type": "address"
        }
      ],
      "name": "OwnershipTransferred",
      "type": "event"
    },
    {
      "anonymous": false,
      "inputs": [
        {
          "indexed": true,
          "internalType": "address",
          "name": "_buyer",
          "type": "address"
        },
        {
          "indexed": false,
          "internalType": "uint256",
          "name": "price",
          "type": "uint256"
        },
        {
          "indexed": false,
          "internalType": "string[]",
          "name": "oldCababilityList",
          "type": "string[]"
        },
        {
          "indexed": false,
          "internalType": "string[]",
          "name": "newCapabilityList",
          "type": "string[]"
        }
      ],
      "name": "capabilityListUpdated",
      "type": "event"
    },
    {
      "inputs": [],
      "name": "owner",
      "outputs": [
        {
          "internalType": "address",
          "name": "",
          "type": "address"
        }
      ],
      "stateMutability": "view",
      "type": "function"
    },
    {
      "inputs": [],
      "name": "renounceOwnership",
      "outputs": [],
      "stateMutability": "nonpayable",
      "type": "function"
    },
    {
      "inputs": [
        {
          "internalType": "address",
          "name": "newOwner",
          "type": "address"
        }
      ],
      "name": "transferOwnership",
      "outputs": [],
      "stateMutability": "nonpayable",
      "type": "function"
    },
    {
      "inputs": [
        {
          "internalType": "string[]",
          "name": "_resources",
          "type": "string[]"
        }
      ],
      "name": "buyResources",
      "outputs": [],
      "stateMutability": "payable",
      "type": "function"
    },
    {
      "inputs": [
        {
          "components": [
            {
              "internalType": "bytes32",
              "name": "from",
              "type": "bytes32"
            },
            {
              "internalType": "bytes32",
              "name": "to",
              "type": "bytes32"
            },
            {
              "internalType": "bytes32",
              "name": "token",
              "type": "bytes32"
            }
          ],
          "internalType": "struct accessAuth.catalogueEntry[]",
          "name": "_catalogueEntries",
          "type": "tuple[]"
        }
      ],
      "name": "updateCatalogue",
      "outputs": [],
      "stateMutability": "nonpayable",
      "type": "function"
    },
    {
      "inputs": [
        {
          "internalType": "address",
          "name": "_buyer",
          "type": "address"
        }
      ],
      "name": "getCapabilityListByAddress",
      "outputs": [
        {
          "internalType": "string[]",
          "name": "",
          "type": "string[]"
        }
      ],
      "stateMutability": "view",
      "type": "function"
    },
    {
      "inputs": [
        {
          "internalType": "bytes32",
          "name": "_from",
          "type": "bytes32"
        },
        {
          "internalType": "bytes32",
          "name": "_to",
          "type": "bytes32"
        }
      ],
      "name": "getToken",
      "outputs": [
        {
          "internalType": "bytes32",
          "name": "",
          "type": "bytes32"
        }
      ],
      "stateMutability": "view",
      "type": "function"
    }
  ],
  "bytecode": "0x608060405234801561001057600080fd5b5061002d61002261003260201b60201c565b61003a60201b60201c565b6100fe565b600033905090565b60008060009054906101000a900473ffffffffffffffffffffffffffffffffffffffff169050816000806101000a81548173ffffffffffffffffffffffffffffffffffffffff021916908373ffffffffffffffffffffffffffffffffffffffff1602179055508173ffffffffffffffffffffffffffffffffffffffff168173ffffffffffffffffffffffffffffffffffffffff167f8be0079c531659141344cd1fd0a4f28419497f9722a3daafe3b4186f6b6457e060405160405180910390a35050565b6115de8061010d6000396000f3fe6080604052600436106100705760003560e01c80637c52f1b51161004e5780637c52f1b5146101065780638da5cb5b14610122578063d4f6b0061461014d578063f2fde38b1461017657610070565b806306e537091461007557806339f08048146100b2578063715018a6146100ef575b600080fd5b34801561008157600080fd5b5061009c60048036038101906100979190610a7c565b61019f565b6040516100a99190610c04565b60405180910390f35b3480156100be57600080fd5b506100d960048036038101906100d49190610c5c565b6102b7565b6040516100e69190610cab565b60405180910390f35b3480156100fb57600080fd5b506101046102e6565b005b610120600480360381019061011b9190610ee1565b61036e565b005b34801561012e57600080fd5b50610137610616565b6040516101449190610f39565b60405180910390f35b34801561015957600080fd5b50610174600480360381019061016f9190611080565b61063f565b005b34801561018257600080fd5b5061019d60048036038101906101989190610a7c565b6107a4565b005b6060600260008373ffffffffffffffffffffffffffffffffffffffff1673ffffffffffffffffffffffffffffffffffffffff168152602001908152602001600020805480602002602001604051908101604052809291908181526020016000905b828210156102ac57838290600052602060002001805461021f906110f8565b80601f016020809104026020016040519081016040528092919081815260200182805461024b906110f8565b80156102985780601f1061026d57610100808354040283529160200191610298565b820191906000526020600020905b81548152906001019060200180831161027b57829003601f168201915b505050505081526020019060010190610200565b505050509050919050565b600060016000848152602001908152602001600020600083815260200190815260200160002054905092915050565b6102ee61089b565b73ffffffffffffffffffffffffffffffffffffffff1661030c610616565b73ffffffffffffffffffffffffffffffffffffffff1614610362576040517f08c379a000000000000000000000000000000000000000000000000000000000815260040161035990611186565b60405180910390fd5b61036c60006108a3565b565b6000600260003373ffffffffffffffffffffffffffffffffffffffff1673ffffffffffffffffffffffffffffffffffffffff168152602001908152602001600020805480602002602001604051908101604052809291908181526020016000905b8282101561047b5783829060005260206000200180546103ee906110f8565b80601f016020809104026020016040519081016040528092919081815260200182805461041a906110f8565b80156104675780601f1061043c57610100808354040283529160200191610467565b820191906000526020600020905b81548152906001019060200180831161044a57829003601f168201915b5050505050815260200190600101906103cf565b50505050905060005b825181101561053357600260003373ffffffffffffffffffffffffffffffffffffffff1673ffffffffffffffffffffffffffffffffffffffff1681526020019081526020016000208382815181106104df576104de6111a6565b5b602002602001015190806001815401808255809150506001900390600052602060002001600090919091909150908051906020019061051f929190610967565b50808061052b9061120e565b915050610484565b5061053c610616565b73ffffffffffffffffffffffffffffffffffffffff166108fc349081150290604051600060405180830381858888f19350505050158015610581573d6000803e3d6000fd5b503373ffffffffffffffffffffffffffffffffffffffff167f7bf361c043995f148eab125ed1a1cd59f1a005bedc2a1fcf88547708aca8f7753483600260003373ffffffffffffffffffffffffffffffffffffffff1673ffffffffffffffffffffffffffffffffffffffff16815260200190815260200160002060405161060a939291906113af565b60405180910390a25050565b60008060009054906101000a900473ffffffffffffffffffffffffffffffffffffffff16905090565b61064761089b565b73ffffffffffffffffffffffffffffffffffffffff16610665610616565b73ffffffffffffffffffffffffffffffffffffffff16146106bb576040517f08c379a00000000000000000000000000000000000000000000000000000000081526004016106b290611186565b60405180910390fd5b60005b81518110156107695760008282815181106106dc576106db6111a6565b5b602002602001015160000151905060008383815181106106ff576106fe6111a6565b5b60200260200101516020015190508383815181106107205761071f6111a6565b5b60200260200101516040015160016000848152602001908152602001600020600083815260200190815260200160002081905550505080806107619061120e565b9150506106be565b507f6b2b1eaabff182403dba89bb237f85f8189b02156afd5cafce0814ef65ebd1338160405161079991906114f4565b60405180910390a150565b6107ac61089b565b73ffffffffffffffffffffffffffffffffffffffff166107ca610616565b73ffffffffffffffffffffffffffffffffffffffff1614610820576040517f08c379a000000000000000000000000000000000000000000000000000000000815260040161081790611186565b60405180910390fd5b600073ffffffffffffffffffffffffffffffffffffffff168173ffffffffffffffffffffffffffffffffffffffff160361088f576040517f08c379a000000000000000000000000000000000000000000000000000000000815260040161088690611588565b60405180910390fd5b610898816108a3565b50565b600033905090565b60008060009054906101000a900473ffffffffffffffffffffffffffffffffffffffff169050816000806101000a81548173ffffffffffffffffffffffffffffffffffffffff021916908373ffffffffffffffffffffffffffffffffffffffff1602179055508173ffffffffffffffffffffffffffffffffffffffff168173ffffffffffffffffffffffffffffffffffffffff167f8be0079c531659141344cd1fd0a4f28419497f9722a3daafe3b4186f6b6457e060405160405180910390a35050565b828054610973906110f8565b90600052602060002090601f01602090048101928261099557600085556109dc565b82601f106109ae57805160ff19168380011785556109dc565b828001600101855582156109dc579182015b828111156109db5782518255916020019190600101906109c0565b5b5090506109e991906109ed565b5090565b5b80821115610a065760008160009055506001016109ee565b5090565b6000604051905090565b600080fd5b600080fd5b600073ffffffffffffffffffffffffffffffffffffffff82169050919050565b6000610a4982610a1e565b9050919050565b610a5981610a3e565b8114610a6457600080fd5b50565b600081359050610a7681610a50565b92915050565b600060208284031215610a9257610a91610a14565b5b6000610aa084828501610a67565b91505092915050565b600081519050919050565b600082825260208201905092915050565b6000819050602082019050919050565b600081519050919050565b600082825260208201905092915050565b60005b83811015610b0f578082015181840152602081019050610af4565b83811115610b1e576000848401525b50505050565b6000601f19601f8301169050919050565b6000610b4082610ad5565b610b4a8185610ae0565b9350610b5a818560208601610af1565b610b6381610b24565b840191505092915050565b6000610b7a8383610b35565b905092915050565b6000602082019050919050565b6000610b9a82610aa9565b610ba48185610ab4565b935083602082028501610bb685610ac5565b8060005b85811015610bf25784840389528151610bd38582610b6e565b9450610bde83610b82565b925060208a01995050600181019050610bba565b50829750879550505050505092915050565b60006020820190508181036000830152610c1e8184610b8f565b905092915050565b6000819050919050565b610c3981610c26565b8114610c4457600080fd5b50565b600081359050610c5681610c30565b92915050565b60008060408385031215610c7357610c72610a14565b5b6000610c8185828601610c47565b9250506020610c9285828601610c47565b9150509250929050565b610ca581610c26565b82525050565b6000602082019050610cc06000830184610c9c565b92915050565b600080fd5b7f4e487b7100000000000000000000000000000000000000000000000000000000600052604160045260246000fd5b610d0382610b24565b810181811067ffffffffffffffff82111715610d2257610d21610ccb565b5b80604052505050565b6000610d35610a0a565b9050610d418282610cfa565b919050565b600067ffffffffffffffff821115610d6157610d60610ccb565b5b602082029050602081019050919050565b600080fd5b600080fd5b600067ffffffffffffffff821115610d9757610d96610ccb565b5b610da082610b24565b9050602081019050919050565b82818337600083830152505050565b6000610dcf610dca84610d7c565b610d2b565b905082815260208101848484011115610deb57610dea610d77565b5b610df6848285610dad565b509392505050565b600082601f830112610e1357610e12610cc6565b5b8135610e23848260208601610dbc565b91505092915050565b6000610e3f610e3a84610d46565b610d2b565b90508083825260208201905060208402830185811115610e6257610e61610d72565b5b835b81811015610ea957803567ffffffffffffffff811115610e8757610e86610cc6565b5b808601610e948982610dfe565b85526020850194505050602081019050610e64565b5050509392505050565b600082601f830112610ec857610ec7610cc6565b5b8135610ed8848260208601610e2c565b91505092915050565b600060208284031215610ef757610ef6610a14565b5b600082013567ffffffffffffffff811115610f1557610f14610a19565b5b610f2184828501610eb3565b91505092915050565b610f3381610a3e565b82525050565b6000602082019050610f4e6000830184610f2a565b92915050565b600067ffffffffffffffff821115610f6f57610f6e610ccb565b5b602082029050602081019050919050565b600080fd5b600060608284031215610f9b57610f9a610f80565b5b610fa56060610d2b565b90506000610fb584828501610c47565b6000830152506020610fc984828501610c47565b6020830152506040610fdd84828501610c47565b60408301525092915050565b6000610ffc610ff784610f54565b610d2b565b9050808382526020820190506060840283018581111561101f5761101e610d72565b5b835b8181101561104857806110348882610f85565b845260208401935050606081019050611021565b5050509392505050565b600082601f83011261106757611066610cc6565b5b8135611077848260208601610fe9565b91505092915050565b60006020828403121561109657611095610a14565b5b600082013567ffffffffffffffff8111156110b4576110b3610a19565b5b6110c084828501611052565b91505092915050565b7f4e487b7100000000000000000000000000000000000000000000000000000000600052602260045260246000fd5b6000600282049050600182168061111057607f821691505b602082108103611123576111226110c9565b5b50919050565b600082825260208201905092915050565b7f4f776e61626c653a2063616c6c6572206973206e6f7420746865206f776e6572600082015250565b6000611170602083611129565b915061117b8261113a565b602082019050919050565b6000602082019050818103600083015261119f81611163565b9050919050565b7f4e487b7100000000000000000000000000000000000000000000000000000000600052603260045260246000fd5b7f4e487b7100000000000000000000000000000000000000000000000000000000600052601160045260246000fd5b6000819050919050565b600061121982611204565b91507fffffffffffffffffffffffffffffffffffffffffffffffffffffffffffffffff820361124b5761124a6111d5565b5b600182019050919050565b61125f81611204565b82525050565b600081549050919050565b60008190508160005260206000209050919050565b60008190508160005260206000209050919050565b600081546112a7816110f8565b6112b18186610ae0565b945060018216600081146112cc57600181146112de57611311565b60ff1983168652602086019350611311565b6112e785611285565b60005b83811015611309578154818901526001820191506020810190506112ea565b808801955050505b50505092915050565b6000611326838361129a565b905092915050565b6000600182019050919050565b600061134682611265565b6113508185610ab4565b93508360208202850161136285611270565b8060005b8581101561139d5784840389528161137e858261131a565b94506113898361132e565b925060208a01995050600181019050611366565b50829750879550505050505092915050565b60006060820190506113c46000830186611256565b81810360208301526113d68185610b8f565b905081810360408301526113ea818461133b565b9050949350505050565b600081519050919050565b600082825260208201905092915050565b6000819050602082019050919050565b61142981610c26565b82525050565b6060820160008201516114456000850182611420565b5060208201516114586020850182611420565b50604082015161146b6040850182611420565b50505050565b600061147d838361142f565b60608301905092915050565b6000602082019050919050565b60006114a1826113f4565b6114ab81856113ff565b93506114b683611410565b8060005b838110156114e75781516114ce8882611471565b97506114d983611489565b9250506001810190506114ba565b5085935050505092915050565b6000602082019050818103600083015261150e8184611496565b905092915050565b7f4f776e61626c653a206e6577206f776e657220697320746865207a65726f206160008201527f6464726573730000000000000000000000000000000000000000000000000000602082015250565b6000611572602683611129565b915061157d82611516565b604082019050919050565b600060208201905081810360008301526115a181611565565b905091905056fea26469706673582212204db434f1ec66ba2d74f8cfb387a9c51e7d11724039c10584002bcafce9762f7764736f6c634300080d0033",
  "immutableReferences": {},
  "source": "// SPDX-License-Identifier: GPL-3.0\r\npragma solidity >=0.7.0 <0.9.0;\r\nimport \"@openzeppelin/contracts/access/Ownable.sol\";\r\n\r\ncontract accessAuth is Ownable(){\r\n\r\n    struct catalogueEntry{\r\n        bytes32 from;\r\n        bytes32 to;\r\n        bytes32 token;\r\n    }\r\n\r\n    mapping(bytes32 => mapping(bytes32 => bytes32)) catalogue;\r\n    mapping(address => string[]) capabilityList;\r\n\r\n    event capabilityListUpdated(\r\n        address indexed _buyer,\r\n        uint price,\r\n        string[] oldCababilityList,\r\n        string[] newCapabilityList\r\n    );\r\n    event CatalogueUpdated(catalogueEntry[] _resources);\r\n\r\n\r\n    function buyResources(string[] memory _resources) external payable {\r\n        string[] memory oldCap = capabilityList[msg.sender];\r\n\r\n        for(uint i=0; i < _resources.length; i++){\r\n            capabilityList[msg.sender].push(_resources[i]); \r\n        }\r\n        \r\n        payable(owner()).transfer(msg.value);\r\n\r\n        emit capabilityListUpdated(msg.sender, msg.value, oldCap,capabilityList[msg.sender]);\r\n    }\r\n\r\n    function updateCatalogue(catalogueEntry[] memory _catalogueEntries) onlyOwner() external{\r\n\r\n        for(uint i=0; i < _catalogueEntries.length; i++){\r\n            bytes32 from = _catalogueEntries[i].from;\r\n            bytes32 to = _catalogueEntries[i].to;\r\n            catalogue[from][to] = _catalogueEntries[i].token;\r\n        }\r\n\r\n        emit CatalogueUpdated(_catalogueEntries);\r\n    }\r\n\r\n    function getCapabilityListByAddress(address _buyer) external view returns(string[] memory) {\r\n        return capabilityList[_buyer];\r\n    }\r\n\r\n    function getToken(bytes32 _from, bytes32 _to) external view returns(bytes32){\r\n        return catalogue[_from][_to];\r\n    }\r\n\r\n\r\n}",
  "sourcePath": "D:\\Users\\richi\\Desktop\\DataMarketplace\\smart-contract\\contracts\\test.sol",
  "compiler": {
    "name": "solc",
    "version": "0.8.13+commit.abaa5c0e.Emscripten.clang"
  },
  "schemaVersion": "3.4.7",
  "updatedAt": "2022-04-29T10:04:04.474Z",
  "devdoc": {
    "kind": "dev",
    "methods": {
      "owner()": {
        "details": "Returns the address of the current owner."
      },
      "renounceOwnership()": {
        "details": "Leaves the contract without owner. It will not be possible to call `onlyOwner` functions anymore. Can only be called by the current owner. NOTE: Renouncing ownership will leave the contract without an owner, thereby removing any functionality that is only available to the owner."
      },
      "transferOwnership(address)": {
        "details": "Transfers ownership of the contract to a new account (`newOwner`). Can only be called by the current owner."
      }
    },
    "version": 1
  },
  "userdoc": {
    "kind": "user",
    "methods": {},
    "version": 1
  }
}