{
  "contractName": "accessAuth",
  "abi": [
    {
      "anonymous": false,
      "inputs": [
        {
          "indexed": true,
          "internalType": "address",
          "name": "_buyer",
          "type": "address"
        },
        {
          "indexed": false,
          "internalType": "uint256",
          "name": "price",
          "type": "uint256"
        },
        {
          "indexed": false,
          "internalType": "string[]",
          "name": "oldCababilityList",
          "type": "string[]"
        },
        {
          "indexed": false,
          "internalType": "string[]",
          "name": "newCapabilityList",
          "type": "string[]"
        }
      ],
      "name": "CapabilityListUpdated",
      "type": "event"
    },
    {
      "anonymous": false,
      "inputs": [
        {
          "indexed": true,
          "internalType": "address",
          "name": "previousOwner",
          "type": "address"
        },
        {
          "indexed": true,
          "internalType": "address",
          "name": "newOwner",
          "type": "address"
        }
      ],
      "name": "OwnershipTransferred",
      "type": "event"
    },
    {
      "anonymous": false,
      "inputs": [
        {
          "components": [
            {
              "internalType": "bytes32",
              "name": "from",
              "type": "bytes32"
            },
            {
              "internalType": "bytes32",
              "name": "to",
              "type": "bytes32"
            },
            {
              "internalType": "bytes32",
              "name": "token",
              "type": "bytes32"
            },
            {
              "internalType": "bytes32",
              "name": "label",
              "type": "bytes32"
            }
          ],
          "indexed": false,
          "internalType": "struct accessAuth.updateData[]",
          "name": "",
          "type": "tuple[]"
        }
      ],
      "name": "UpdateData",
      "type": "event"
    },
    {
      "inputs": [],
      "name": "owner",
      "outputs": [
        {
          "internalType": "address",
          "name": "",
          "type": "address"
        }
      ],
      "stateMutability": "view",
      "type": "function"
    },
    {
      "inputs": [],
      "name": "renounceOwnership",
      "outputs": [],
      "stateMutability": "nonpayable",
      "type": "function"
    },
    {
      "inputs": [
        {
          "internalType": "address",
          "name": "newOwner",
          "type": "address"
        }
      ],
      "name": "transferOwnership",
      "outputs": [],
      "stateMutability": "nonpayable",
      "type": "function"
    },
    {
      "inputs": [
        {
          "internalType": "string[]",
          "name": "_resources",
          "type": "string[]"
        }
      ],
      "name": "buyResources",
      "outputs": [],
      "stateMutability": "payable",
      "type": "function"
    },
    {
      "inputs": [
        {
          "components": [
            {
              "internalType": "bytes32",
              "name": "from",
              "type": "bytes32"
            },
            {
              "internalType": "bytes32",
              "name": "to",
              "type": "bytes32"
            },
            {
              "internalType": "bytes32",
              "name": "token",
              "type": "bytes32"
            },
            {
              "internalType": "bytes32",
              "name": "label",
              "type": "bytes32"
            }
          ],
          "internalType": "struct accessAuth.updateData[]",
          "name": "_updateData",
          "type": "tuple[]"
        }
      ],
      "name": "updateCatalogue",
      "outputs": [],
      "stateMutability": "nonpayable",
      "type": "function"
    },
    {
      "inputs": [
        {
          "internalType": "address",
          "name": "_buyer",
          "type": "address"
        }
      ],
      "name": "getCapabilityListByAddress",
      "outputs": [
        {
          "internalType": "string[]",
          "name": "",
          "type": "string[]"
        }
      ],
      "stateMutability": "view",
      "type": "function"
    },
    {
      "inputs": [
        {
          "internalType": "bytes32",
          "name": "_from",
          "type": "bytes32"
        }
      ],
      "name": "getTokens",
      "outputs": [
        {
          "components": [
            {
              "internalType": "bytes32",
              "name": "id",
              "type": "bytes32"
            },
            {
              "internalType": "bytes32",
              "name": "token",
              "type": "bytes32"
            }
          ],
          "internalType": "struct accessAuth.node[]",
          "name": "",
          "type": "tuple[]"
        }
      ],
      "stateMutability": "view",
      "type": "function"
    },
    {
      "inputs": [
        {
          "internalType": "bytes32",
          "name": "_edge",
          "type": "bytes32"
        }
      ],
      "name": "getLabel",
      "outputs": [
        {
          "internalType": "bytes32",
          "name": "",
          "type": "bytes32"
        }
      ],
      "stateMutability": "view",
      "type": "function"
    }
  ],
  "bytecode": "0x608060405234801561001057600080fd5b5061002d61002261003260201b60201c565b61003a60201b60201c565b6100fe565b600033905090565b60008060009054906101000a900473ffffffffffffffffffffffffffffffffffffffff169050816000806101000a81548173ffffffffffffffffffffffffffffffffffffffff021916908373ffffffffffffffffffffffffffffffffffffffff1602179055508173ffffffffffffffffffffffffffffffffffffffff168173ffffffffffffffffffffffffffffffffffffffff167f8be0079c531659141344cd1fd0a4f28419497f9722a3daafe3b4186f6b6457e060405160405180910390a35050565b611a498061010d6000396000f3fe60806040526004361061007b5760003560e01c80638da5cb5b1161004e5780638da5cb5b1461012d578063c8a7770f14610158578063ecbbc03314610181578063f2fde38b146101be5761007b565b806306e53709146100805780635330c1b5146100bd578063715018a6146100fa5780637c52f1b514610111575b600080fd5b34801561008c57600080fd5b506100a760048036038101906100a29190610d7d565b6101e7565b6040516100b49190610f05565b60405180910390f35b3480156100c957600080fd5b506100e460048036038101906100df9190610f5d565b6102ff565b6040516100f19190610f99565b60405180910390f35b34801561010657600080fd5b5061010f61031c565b005b61012b600480360381019061012691906111cf565b6103a4565b005b34801561013957600080fd5b5061014261064c565b60405161014f9190611227565b60405180910390f35b34801561016457600080fd5b5061017f600480360381019061017a9190611382565b610675565b005b34801561018d57600080fd5b506101a860048036038101906101a39190610f5d565b61095a565b6040516101b591906114b8565b60405180910390f35b3480156101ca57600080fd5b506101e560048036038101906101e09190610d7d565b6109e0565b005b6060600260008373ffffffffffffffffffffffffffffffffffffffff1673ffffffffffffffffffffffffffffffffffffffff168152602001908152602001600020805480602002602001604051908101604052809291908181526020016000905b828210156102f457838290600052602060002001805461026790611509565b80601f016020809104026020016040519081016040528092919081815260200182805461029390611509565b80156102e05780601f106102b5576101008083540402835291602001916102e0565b820191906000526020600020905b8154815290600101906020018083116102c357829003601f168201915b505050505081526020019060010190610248565b505050509050919050565b600060036000838152602001908152602001600020549050919050565b610324610ad7565b73ffffffffffffffffffffffffffffffffffffffff1661034261064c565b73ffffffffffffffffffffffffffffffffffffffff1614610398576040517f08c379a000000000000000000000000000000000000000000000000000000000815260040161038f90611597565b60405180910390fd5b6103a26000610adf565b565b6000600260003373ffffffffffffffffffffffffffffffffffffffff1673ffffffffffffffffffffffffffffffffffffffff168152602001908152602001600020805480602002602001604051908101604052809291908181526020016000905b828210156104b157838290600052602060002001805461042490611509565b80601f016020809104026020016040519081016040528092919081815260200182805461045090611509565b801561049d5780601f106104725761010080835404028352916020019161049d565b820191906000526020600020905b81548152906001019060200180831161048057829003601f168201915b505050505081526020019060010190610405565b50505050905060005b825181101561056957600260003373ffffffffffffffffffffffffffffffffffffffff1673ffffffffffffffffffffffffffffffffffffffff168152602001908152602001600020838281518110610515576105146115b7565b5b6020026020010151908060018154018082558091505060019003906000526020600020016000909190919091509080519060200190610555929190610c48565b5080806105619061161f565b9150506104ba565b5061057261064c565b73ffffffffffffffffffffffffffffffffffffffff166108fc349081150290604051600060405180830381858888f193505050501580156105b7573d6000803e3d6000fd5b503373ffffffffffffffffffffffffffffffffffffffff167fe78be8b6292de04da63ebe9925fa4ba003409d21a198302644f31a037787269d3483600260003373ffffffffffffffffffffffffffffffffffffffff1673ffffffffffffffffffffffffffffffffffffffff168152602001908152602001600020604051610640939291906117c0565b60405180910390a25050565b60008060009054906101000a900473ffffffffffffffffffffffffffffffffffffffff16905090565b61067d610ad7565b73ffffffffffffffffffffffffffffffffffffffff1661069b61064c565b73ffffffffffffffffffffffffffffffffffffffff16146106f1576040517f08c379a00000000000000000000000000000000000000000000000000000000081526004016106e890611597565b60405180910390fd5b6106f9610cce565b600080600090505b835181101561091d57600084828151811061071f5761071e6115b7565b5b60200260200101516000015190506000858381518110610742576107416115b7565b5b60200260200101516020015190508085600001818152505085838151811061076d5761076c6115b7565b5b60200260200101516040015185602001818152505061080860016000848152602001908152602001600020805480602002602001604051908101604052809291908181526020016000905b828210156107fe578382906000526020600020906002020160405180604001604052908160008201548152602001600182015481525050815260200190600101906107b8565b5050505086610ba3565b809550819650505060016000838152602001908152602001600020805490508411156108865760016000838152602001908152602001600020859080600181540180825580915050600190039060005260206000209060020201600090919091909150600082015181600001556020820151816001015550506108d2565b846001600084815260200190815260200160002085815481106108ac576108ab6115b7565b5b906000526020600020906002020160008201518160000155602082015181600101559050505b8583815181106108e5576108e46115b7565b5b6020026020010151606001516003600083815260200190815260200160002081905550505080806109159061161f565b915050610701565b507f7e52c3f5072d11d5bcff9d20c03c2e6d05c0a410e51ac0730b73a2057283554a8360405161094d9190611909565b60405180910390a1505050565b606060016000838152602001908152602001600020805480602002602001604051908101604052809291908181526020016000905b828210156109d55783829060005260206000209060020201604051806040016040529081600082015481526020016001820154815250508152602001906001019061098f565b505050509050919050565b6109e8610ad7565b73ffffffffffffffffffffffffffffffffffffffff16610a0661064c565b73ffffffffffffffffffffffffffffffffffffffff1614610a5c576040517f08c379a0000000000000000000000000000000000000000000000000000000008152600401610a5390611597565b60405180910390fd5b600073ffffffffffffffffffffffffffffffffffffffff168173ffffffffffffffffffffffffffffffffffffffff1603610acb576040517f08c379a0000000000000000000000000000000000000000000000000000000008152600401610ac29061199d565b60405180910390fd5b610ad481610adf565b50565b600033905090565b60008060009054906101000a900473ffffffffffffffffffffffffffffffffffffffff169050816000806101000a81548173ffffffffffffffffffffffffffffffffffffffff021916908373ffffffffffffffffffffffffffffffffffffffff1602179055508173ffffffffffffffffffffffffffffffffffffffff168173ffffffffffffffffffffffffffffffffffffffff167f8be0079c531659141344cd1fd0a4f28419497f9722a3daafe3b4186f6b6457e060405160405180910390a35050565b610bab610cce565b600080600090505b8451811015610c2c578360000151858281518110610bd457610bd36115b7565b5b60200260200101516000015103610c19578360200151858281518110610bfd57610bfc6115b7565b5b6020026020010151602001818152505083819250925050610c41565b8080610c249061161f565b915050610bb3565b508260018551610c3c91906119bd565b915091505b9250929050565b828054610c5490611509565b90600052602060002090601f016020900481019282610c765760008555610cbd565b82601f10610c8f57805160ff1916838001178555610cbd565b82800160010185558215610cbd579182015b82811115610cbc578251825591602001919060010190610ca1565b5b509050610cca9190610cee565b5090565b604051806040016040528060008019168152602001600080191681525090565b5b80821115610d07576000816000905550600101610cef565b5090565b6000604051905090565b600080fd5b600080fd5b600073ffffffffffffffffffffffffffffffffffffffff82169050919050565b6000610d4a82610d1f565b9050919050565b610d5a81610d3f565b8114610d6557600080fd5b50565b600081359050610d7781610d51565b92915050565b600060208284031215610d9357610d92610d15565b5b6000610da184828501610d68565b91505092915050565b600081519050919050565b600082825260208201905092915050565b6000819050602082019050919050565b600081519050919050565b600082825260208201905092915050565b60005b83811015610e10578082015181840152602081019050610df5565b83811115610e1f576000848401525b50505050565b6000601f19601f8301169050919050565b6000610e4182610dd6565b610e4b8185610de1565b9350610e5b818560208601610df2565b610e6481610e25565b840191505092915050565b6000610e7b8383610e36565b905092915050565b6000602082019050919050565b6000610e9b82610daa565b610ea58185610db5565b935083602082028501610eb785610dc6565b8060005b85811015610ef35784840389528151610ed48582610e6f565b9450610edf83610e83565b925060208a01995050600181019050610ebb565b50829750879550505050505092915050565b60006020820190508181036000830152610f1f8184610e90565b905092915050565b6000819050919050565b610f3a81610f27565b8114610f4557600080fd5b50565b600081359050610f5781610f31565b92915050565b600060208284031215610f7357610f72610d15565b5b6000610f8184828501610f48565b91505092915050565b610f9381610f27565b82525050565b6000602082019050610fae6000830184610f8a565b92915050565b600080fd5b7f4e487b7100000000000000000000000000000000000000000000000000000000600052604160045260246000fd5b610ff182610e25565b810181811067ffffffffffffffff821117156110105761100f610fb9565b5b80604052505050565b6000611023610d0b565b905061102f8282610fe8565b919050565b600067ffffffffffffffff82111561104f5761104e610fb9565b5b602082029050602081019050919050565b600080fd5b600080fd5b600067ffffffffffffffff82111561108557611084610fb9565b5b61108e82610e25565b9050602081019050919050565b82818337600083830152505050565b60006110bd6110b88461106a565b611019565b9050828152602081018484840111156110d9576110d8611065565b5b6110e484828561109b565b509392505050565b600082601f83011261110157611100610fb4565b5b81356111118482602086016110aa565b91505092915050565b600061112d61112884611034565b611019565b905080838252602082019050602084028301858111156111505761114f611060565b5b835b8181101561119757803567ffffffffffffffff81111561117557611174610fb4565b5b80860161118289826110ec565b85526020850194505050602081019050611152565b5050509392505050565b600082601f8301126111b6576111b5610fb4565b5b81356111c684826020860161111a565b91505092915050565b6000602082840312156111e5576111e4610d15565b5b600082013567ffffffffffffffff81111561120357611202610d1a565b5b61120f848285016111a1565b91505092915050565b61122181610d3f565b82525050565b600060208201905061123c6000830184611218565b92915050565b600067ffffffffffffffff82111561125d5761125c610fb9565b5b602082029050602081019050919050565b600080fd5b6000608082840312156112895761128861126e565b5b6112936080611019565b905060006112a384828501610f48565b60008301525060206112b784828501610f48565b60208301525060406112cb84828501610f48565b60408301525060606112df84828501610f48565b60608301525092915050565b60006112fe6112f984611242565b611019565b9050808382526020820190506080840283018581111561132157611320611060565b5b835b8181101561134a57806113368882611273565b845260208401935050608081019050611323565b5050509392505050565b600082601f83011261136957611368610fb4565b5b81356113798482602086016112eb565b91505092915050565b60006020828403121561139857611397610d15565b5b600082013567ffffffffffffffff8111156113b6576113b5610d1a565b5b6113c284828501611354565b91505092915050565b600081519050919050565b600082825260208201905092915050565b6000819050602082019050919050565b61140081610f27565b82525050565b60408201600082015161141c60008501826113f7565b50602082015161142f60208501826113f7565b50505050565b60006114418383611406565b60408301905092915050565b6000602082019050919050565b6000611465826113cb565b61146f81856113d6565b935061147a836113e7565b8060005b838110156114ab5781516114928882611435565b975061149d8361144d565b92505060018101905061147e565b5085935050505092915050565b600060208201905081810360008301526114d2818461145a565b905092915050565b7f4e487b7100000000000000000000000000000000000000000000000000000000600052602260045260246000fd5b6000600282049050600182168061152157607f821691505b602082108103611534576115336114da565b5b50919050565b600082825260208201905092915050565b7f4f776e61626c653a2063616c6c6572206973206e6f7420746865206f776e6572600082015250565b600061158160208361153a565b915061158c8261154b565b602082019050919050565b600060208201905081810360008301526115b081611574565b9050919050565b7f4e487b7100000000000000000000000000000000000000000000000000000000600052603260045260246000fd5b7f4e487b7100000000000000000000000000000000000000000000000000000000600052601160045260246000fd5b6000819050919050565b600061162a82611615565b91507fffffffffffffffffffffffffffffffffffffffffffffffffffffffffffffffff820361165c5761165b6115e6565b5b600182019050919050565b61167081611615565b82525050565b600081549050919050565b60008190508160005260206000209050919050565b60008190508160005260206000209050919050565b600081546116b881611509565b6116c28186610de1565b945060018216600081146116dd57600181146116ef57611722565b60ff1983168652602086019350611722565b6116f885611696565b60005b8381101561171a578154818901526001820191506020810190506116fb565b808801955050505b50505092915050565b600061173783836116ab565b905092915050565b6000600182019050919050565b600061175782611676565b6117618185610db5565b93508360208202850161177385611681565b8060005b858110156117ae5784840389528161178f858261172b565b945061179a8361173f565b925060208a01995050600181019050611777565b50829750879550505050505092915050565b60006060820190506117d56000830186611667565b81810360208301526117e78185610e90565b905081810360408301526117fb818461174c565b9050949350505050565b600081519050919050565b600082825260208201905092915050565b6000819050602082019050919050565b60808201600082015161184760008501826113f7565b50602082015161185a60208501826113f7565b50604082015161186d60408501826113f7565b50606082015161188060608501826113f7565b50505050565b60006118928383611831565b60808301905092915050565b6000602082019050919050565b60006118b682611805565b6118c08185611810565b93506118cb83611821565b8060005b838110156118fc5781516118e38882611886565b97506118ee8361189e565b9250506001810190506118cf565b5085935050505092915050565b6000602082019050818103600083015261192381846118ab565b905092915050565b7f4f776e61626c653a206e6577206f776e657220697320746865207a65726f206160008201527f6464726573730000000000000000000000000000000000000000000000000000602082015250565b600061198760268361153a565b91506119928261192b565b604082019050919050565b600060208201905081810360008301526119b68161197a565b9050919050565b60006119c882611615565b91506119d383611615565b9250827fffffffffffffffffffffffffffffffffffffffffffffffffffffffffffffffff03821115611a0857611a076115e6565b5b82820190509291505056fea26469706673582212205a378aef2cc39d9fd95144a0ca5c6753fe50fd6956639f7029d6f07597b2c75364736f6c634300080d0033",
  "immutableReferences": {},
  "source": "// SPDX-License-Identifier: GPL-3.0\r\npragma solidity >=0.7.0 <0.9.0;\r\nimport \"@openzeppelin/contracts/access/Ownable.sol\";\r\n\r\ncontract accessAuth is Ownable(){\r\n\r\n    struct updateData{\r\n        bytes32 from;\r\n        bytes32 to;\r\n        bytes32 token;\r\n        bytes32 label;\r\n    }\r\n\r\n    struct node{\r\n        bytes32 id;\r\n        bytes32 token;\r\n    }\r\n\r\n    mapping(bytes32 => node[]) catalogue;\r\n    mapping(address => string[]) capabilityList;\r\n    mapping(bytes32 => bytes32) labels;\r\n\r\n    event CapabilityListUpdated(\r\n        address indexed _buyer,\r\n        uint price,\r\n        string[] oldCababilityList,\r\n        string[] newCapabilityList\r\n    );\r\n\r\n    event UpdateData(updateData[]);\r\n\r\n\r\n    function buyResources(string[] memory _resources) external payable {\r\n        string[] memory oldCap = capabilityList[msg.sender];\r\n\r\n        for(uint i=0; i < _resources.length; i++){\r\n            capabilityList[msg.sender].push(_resources[i]); \r\n        }\r\n        \r\n        payable(owner()).transfer(msg.value);\r\n\r\n        emit CapabilityListUpdated(msg.sender, msg.value, oldCap,capabilityList[msg.sender]);\r\n    }\r\n\r\n    function updateCatalogue(updateData[] memory _updateData) onlyOwner() external{\r\n        node memory tempNode;\r\n        uint idx;\r\n\r\n        for(uint i=0; i < _updateData.length; i++){\r\n            bytes32 from = _updateData[i].from;\r\n            bytes32 to = _updateData[i].to;\r\n\r\n            tempNode.id = to;\r\n            tempNode.token = _updateData[i].token;\r\n            (tempNode,idx) = _updateElementsInNode(catalogue[from],tempNode);\r\n\r\n            if(idx > catalogue[from].length){\r\n                catalogue[from].push(tempNode);\r\n            }else{\r\n                catalogue[from][idx] = tempNode;\r\n            }\r\n\r\n            labels[to] = _updateData[i].label;\r\n        }\r\n\r\n        emit UpdateData(_updateData);\r\n    }\r\n\r\n\r\n    function _updateElementsInNode(node[] memory _node,node memory _data) private pure returns(node memory,uint){\r\n        for(uint i=0; i < _node.length; i++){\r\n            if(_node[i].id == _data.id){\r\n                _node[i].token = _data.token;\r\n                return (_data,i);\r\n            }\r\n        }\r\n\r\n        return (_data,_node.length+1);\r\n    }\r\n\r\n    function getCapabilityListByAddress(address _buyer) external view returns(string[] memory) {\r\n        return capabilityList[_buyer];\r\n    }\r\n\r\n    function getTokens(bytes32 _from) external view returns(node[] memory){\r\n        return catalogue[_from];\r\n    }\r\n\r\n    function getLabel(bytes32 _edge) external view returns(bytes32){\r\n        return labels[_edge];\r\n    }\r\n\r\n\r\n}",
  "sourcePath": "D:\\Users\\richi\\Desktop\\DataMarketplace\\smart-contract\\contracts\\accessAuth.sol",
  "compiler": {
    "name": "solc",
    "version": "0.8.13+commit.abaa5c0e.Emscripten.clang"
  },
  "schemaVersion": "3.4.7",
  "updatedAt": "2022-05-03T14:41:24.428Z",
  "devdoc": {
    "kind": "dev",
    "methods": {
      "owner()": {
        "details": "Returns the address of the current owner."
      },
      "renounceOwnership()": {
        "details": "Leaves the contract without owner. It will not be possible to call `onlyOwner` functions anymore. Can only be called by the current owner. NOTE: Renouncing ownership will leave the contract without an owner, thereby removing any functionality that is only available to the owner."
      },
      "transferOwnership(address)": {
        "details": "Transfers ownership of the contract to a new account (`newOwner`). Can only be called by the current owner."
      }
    },
    "version": 1
  },
  "userdoc": {
    "kind": "user",
    "methods": {},
    "version": 1
  }
}