{
  "contractName": "accessAuth",
  "abi": [
    {
      "anonymous": false,
      "inputs": [
        {
          "indexed": true,
          "internalType": "address",
          "name": "_buyer",
          "type": "address"
        },
        {
          "indexed": false,
          "internalType": "uint256",
          "name": "price",
          "type": "uint256"
        },
        {
          "indexed": false,
          "internalType": "string[]",
          "name": "oldCababilityList",
          "type": "string[]"
        },
        {
          "indexed": false,
          "internalType": "string[]",
          "name": "newCapabilityList",
          "type": "string[]"
        }
      ],
      "name": "CapabilityListUpdated",
      "type": "event"
    },
    {
      "anonymous": false,
      "inputs": [
        {
          "indexed": true,
          "internalType": "address",
          "name": "previousOwner",
          "type": "address"
        },
        {
          "indexed": true,
          "internalType": "address",
          "name": "newOwner",
          "type": "address"
        }
      ],
      "name": "OwnershipTransferred",
      "type": "event"
    },
    {
      "anonymous": false,
      "inputs": [
        {
          "components": [
            {
              "internalType": "bytes32",
              "name": "from",
              "type": "bytes32"
            },
            {
              "internalType": "bytes32",
              "name": "to",
              "type": "bytes32"
            },
            {
              "internalType": "bytes32",
              "name": "token",
              "type": "bytes32"
            },
            {
              "internalType": "bytes32",
              "name": "label",
              "type": "bytes32"
            }
          ],
          "indexed": false,
          "internalType": "struct accessAuth.updateData[]",
          "name": "",
          "type": "tuple[]"
        }
      ],
      "name": "UpdateData",
      "type": "event"
    },
    {
      "inputs": [],
      "name": "owner",
      "outputs": [
        {
          "internalType": "address",
          "name": "",
          "type": "address"
        }
      ],
      "stateMutability": "view",
      "type": "function"
    },
    {
      "inputs": [],
      "name": "renounceOwnership",
      "outputs": [],
      "stateMutability": "nonpayable",
      "type": "function"
    },
    {
      "inputs": [
        {
          "internalType": "address",
          "name": "newOwner",
          "type": "address"
        }
      ],
      "name": "transferOwnership",
      "outputs": [],
      "stateMutability": "nonpayable",
      "type": "function"
    },
    {
      "inputs": [
        {
          "internalType": "string[]",
          "name": "_resources",
          "type": "string[]"
        }
      ],
      "name": "buyResources",
      "outputs": [],
      "stateMutability": "payable",
      "type": "function"
    },
    {
      "inputs": [
        {
          "components": [
            {
              "internalType": "bytes32",
              "name": "from",
              "type": "bytes32"
            },
            {
              "internalType": "bytes32",
              "name": "to",
              "type": "bytes32"
            },
            {
              "internalType": "bytes32",
              "name": "token",
              "type": "bytes32"
            },
            {
              "internalType": "bytes32",
              "name": "label",
              "type": "bytes32"
            }
          ],
          "internalType": "struct accessAuth.updateData[]",
          "name": "_updateData",
          "type": "tuple[]"
        }
      ],
      "name": "updateCatalogue",
      "outputs": [],
      "stateMutability": "nonpayable",
      "type": "function"
    },
    {
      "inputs": [
        {
          "internalType": "address",
          "name": "_buyer",
          "type": "address"
        }
      ],
      "name": "getCapabilityListByAddress",
      "outputs": [
        {
          "internalType": "string[]",
          "name": "",
          "type": "string[]"
        }
      ],
      "stateMutability": "view",
      "type": "function"
    },
    {
      "inputs": [
        {
          "internalType": "bytes32",
          "name": "_from",
          "type": "bytes32"
        }
      ],
      "name": "getTokens",
      "outputs": [
        {
          "components": [
            {
              "internalType": "bytes32",
              "name": "id",
              "type": "bytes32"
            },
            {
              "internalType": "bytes32",
              "name": "token",
              "type": "bytes32"
            }
          ],
          "internalType": "struct accessAuth.node[]",
          "name": "",
          "type": "tuple[]"
        }
      ],
      "stateMutability": "view",
      "type": "function"
    },
    {
      "inputs": [
        {
          "internalType": "bytes32",
          "name": "_edge",
          "type": "bytes32"
        }
      ],
      "name": "getLabel",
      "outputs": [
        {
          "internalType": "bytes32",
          "name": "",
          "type": "bytes32"
        }
      ],
      "stateMutability": "view",
      "type": "function"
    }
  ],
  "bytecode": "0x608060405234801561001057600080fd5b5061002d61002261003260201b60201c565b61003a60201b60201c565b6100fe565b600033905090565b60008060009054906101000a900473ffffffffffffffffffffffffffffffffffffffff169050816000806101000a81548173ffffffffffffffffffffffffffffffffffffffff021916908373ffffffffffffffffffffffffffffffffffffffff1602179055508173ffffffffffffffffffffffffffffffffffffffff168173ffffffffffffffffffffffffffffffffffffffff167f8be0079c531659141344cd1fd0a4f28419497f9722a3daafe3b4186f6b6457e060405160405180910390a35050565b611a218061010d6000396000f3fe60806040526004361061007b5760003560e01c80638da5cb5b1161004e5780638da5cb5b1461012d578063c8a7770f14610158578063ecbbc03314610181578063f2fde38b146101be5761007b565b806306e53709146100805780635330c1b5146100bd578063715018a6146100fa5780637c52f1b514610111575b600080fd5b34801561008c57600080fd5b506100a760048036038101906100a29190610d55565b6101e7565b6040516100b49190610edd565b60405180910390f35b3480156100c957600080fd5b506100e460048036038101906100df9190610f35565b6102ff565b6040516100f19190610f71565b60405180910390f35b34801561010657600080fd5b5061010f61031c565b005b61012b600480360381019061012691906111a7565b6103a4565b005b34801561013957600080fd5b5061014261064c565b60405161014f91906111ff565b60405180910390f35b34801561016457600080fd5b5061017f600480360381019061017a919061135a565b610675565b005b34801561018d57600080fd5b506101a860048036038101906101a39190610f35565b61095a565b6040516101b59190611490565b60405180910390f35b3480156101ca57600080fd5b506101e560048036038101906101e09190610d55565b6109e0565b005b6060600260008373ffffffffffffffffffffffffffffffffffffffff1673ffffffffffffffffffffffffffffffffffffffff168152602001908152602001600020805480602002602001604051908101604052809291908181526020016000905b828210156102f4578382906000526020600020018054610267906114e1565b80601f0160208091040260200160405190810160405280929190818152602001828054610293906114e1565b80156102e05780601f106102b5576101008083540402835291602001916102e0565b820191906000526020600020905b8154815290600101906020018083116102c357829003601f168201915b505050505081526020019060010190610248565b505050509050919050565b600060036000838152602001908152602001600020549050919050565b610324610ad7565b73ffffffffffffffffffffffffffffffffffffffff1661034261064c565b73ffffffffffffffffffffffffffffffffffffffff1614610398576040517f08c379a000000000000000000000000000000000000000000000000000000000815260040161038f9061156f565b60405180910390fd5b6103a26000610adf565b565b6000600260003373ffffffffffffffffffffffffffffffffffffffff1673ffffffffffffffffffffffffffffffffffffffff168152602001908152602001600020805480602002602001604051908101604052809291908181526020016000905b828210156104b1578382906000526020600020018054610424906114e1565b80601f0160208091040260200160405190810160405280929190818152602001828054610450906114e1565b801561049d5780601f106104725761010080835404028352916020019161049d565b820191906000526020600020905b81548152906001019060200180831161048057829003601f168201915b505050505081526020019060010190610405565b50505050905060005b825181101561056957600260003373ffffffffffffffffffffffffffffffffffffffff1673ffffffffffffffffffffffffffffffffffffffff1681526020019081526020016000208382815181106105155761051461158f565b5b6020026020010151908060018154018082558091505060019003906000526020600020016000909190919091509080519060200190610555929190610c20565b508080610561906115f7565b9150506104ba565b5061057261064c565b73ffffffffffffffffffffffffffffffffffffffff166108fc349081150290604051600060405180830381858888f193505050501580156105b7573d6000803e3d6000fd5b503373ffffffffffffffffffffffffffffffffffffffff167fe78be8b6292de04da63ebe9925fa4ba003409d21a198302644f31a037787269d3483600260003373ffffffffffffffffffffffffffffffffffffffff1673ffffffffffffffffffffffffffffffffffffffff16815260200190815260200160002060405161064093929190611798565b60405180910390a25050565b60008060009054906101000a900473ffffffffffffffffffffffffffffffffffffffff16905090565b61067d610ad7565b73ffffffffffffffffffffffffffffffffffffffff1661069b61064c565b73ffffffffffffffffffffffffffffffffffffffff16146106f1576040517f08c379a00000000000000000000000000000000000000000000000000000000081526004016106e89061156f565b60405180910390fd5b6106f9610ca6565b600080600090505b835181101561091d57600084828151811061071f5761071e61158f565b5b602002602001015160000151905060008583815181106107425761074161158f565b5b60200260200101516020015190508085600001818152505085838151811061076d5761076c61158f565b5b60200260200101516040015185602001818152505061080860016000848152602001908152602001600020805480602002602001604051908101604052809291908181526020016000905b828210156107fe578382906000526020600020906002020160405180604001604052908160008201548152602001600182015481525050815260200190600101906107b8565b5050505086610ba3565b809550819650505060016000838152602001908152602001600020805490508411156108865760016000838152602001908152602001600020859080600181540180825580915050600190039060005260206000209060020201600090919091909150600082015181600001556020820151816001015550506108d2565b846001600084815260200190815260200160002085815481106108ac576108ab61158f565b5b906000526020600020906002020160008201518160000155602082015181600101559050505b8583815181106108e5576108e461158f565b5b602002602001015160600151600360008381526020019081526020016000208190555050508080610915906115f7565b915050610701565b507f7e52c3f5072d11d5bcff9d20c03c2e6d05c0a410e51ac0730b73a2057283554a8360405161094d91906118e1565b60405180910390a1505050565b606060016000838152602001908152602001600020805480602002602001604051908101604052809291908181526020016000905b828210156109d55783829060005260206000209060020201604051806040016040529081600082015481526020016001820154815250508152602001906001019061098f565b505050509050919050565b6109e8610ad7565b73ffffffffffffffffffffffffffffffffffffffff16610a0661064c565b73ffffffffffffffffffffffffffffffffffffffff1614610a5c576040517f08c379a0000000000000000000000000000000000000000000000000000000008152600401610a539061156f565b60405180910390fd5b600073ffffffffffffffffffffffffffffffffffffffff168173ffffffffffffffffffffffffffffffffffffffff1603610acb576040517f08c379a0000000000000000000000000000000000000000000000000000000008152600401610ac290611975565b60405180910390fd5b610ad481610adf565b50565b600033905090565b60008060009054906101000a900473ffffffffffffffffffffffffffffffffffffffff169050816000806101000a81548173ffffffffffffffffffffffffffffffffffffffff021916908373ffffffffffffffffffffffffffffffffffffffff1602179055508173ffffffffffffffffffffffffffffffffffffffff168173ffffffffffffffffffffffffffffffffffffffff167f8be0079c531659141344cd1fd0a4f28419497f9722a3daafe3b4186f6b6457e060405160405180910390a35050565b610bab610ca6565b600080600090505b8451811015610c04578360000151858281518110610bd457610bd361158f565b5b60200260200101516000015103610bf15783819250925050610c19565b8080610bfc906115f7565b915050610bb3565b508260018551610c149190611995565b915091505b9250929050565b828054610c2c906114e1565b90600052602060002090601f016020900481019282610c4e5760008555610c95565b82601f10610c6757805160ff1916838001178555610c95565b82800160010185558215610c95579182015b82811115610c94578251825591602001919060010190610c79565b5b509050610ca29190610cc6565b5090565b604051806040016040528060008019168152602001600080191681525090565b5b80821115610cdf576000816000905550600101610cc7565b5090565b6000604051905090565b600080fd5b600080fd5b600073ffffffffffffffffffffffffffffffffffffffff82169050919050565b6000610d2282610cf7565b9050919050565b610d3281610d17565b8114610d3d57600080fd5b50565b600081359050610d4f81610d29565b92915050565b600060208284031215610d6b57610d6a610ced565b5b6000610d7984828501610d40565b91505092915050565b600081519050919050565b600082825260208201905092915050565b6000819050602082019050919050565b600081519050919050565b600082825260208201905092915050565b60005b83811015610de8578082015181840152602081019050610dcd565b83811115610df7576000848401525b50505050565b6000601f19601f8301169050919050565b6000610e1982610dae565b610e238185610db9565b9350610e33818560208601610dca565b610e3c81610dfd565b840191505092915050565b6000610e538383610e0e565b905092915050565b6000602082019050919050565b6000610e7382610d82565b610e7d8185610d8d565b935083602082028501610e8f85610d9e565b8060005b85811015610ecb5784840389528151610eac8582610e47565b9450610eb783610e5b565b925060208a01995050600181019050610e93565b50829750879550505050505092915050565b60006020820190508181036000830152610ef78184610e68565b905092915050565b6000819050919050565b610f1281610eff565b8114610f1d57600080fd5b50565b600081359050610f2f81610f09565b92915050565b600060208284031215610f4b57610f4a610ced565b5b6000610f5984828501610f20565b91505092915050565b610f6b81610eff565b82525050565b6000602082019050610f866000830184610f62565b92915050565b600080fd5b7f4e487b7100000000000000000000000000000000000000000000000000000000600052604160045260246000fd5b610fc982610dfd565b810181811067ffffffffffffffff82111715610fe857610fe7610f91565b5b80604052505050565b6000610ffb610ce3565b90506110078282610fc0565b919050565b600067ffffffffffffffff82111561102757611026610f91565b5b602082029050602081019050919050565b600080fd5b600080fd5b600067ffffffffffffffff82111561105d5761105c610f91565b5b61106682610dfd565b9050602081019050919050565b82818337600083830152505050565b600061109561109084611042565b610ff1565b9050828152602081018484840111156110b1576110b061103d565b5b6110bc848285611073565b509392505050565b600082601f8301126110d9576110d8610f8c565b5b81356110e9848260208601611082565b91505092915050565b60006111056111008461100c565b610ff1565b9050808382526020820190506020840283018581111561112857611127611038565b5b835b8181101561116f57803567ffffffffffffffff81111561114d5761114c610f8c565b5b80860161115a89826110c4565b8552602085019450505060208101905061112a565b5050509392505050565b600082601f83011261118e5761118d610f8c565b5b813561119e8482602086016110f2565b91505092915050565b6000602082840312156111bd576111bc610ced565b5b600082013567ffffffffffffffff8111156111db576111da610cf2565b5b6111e784828501611179565b91505092915050565b6111f981610d17565b82525050565b600060208201905061121460008301846111f0565b92915050565b600067ffffffffffffffff82111561123557611234610f91565b5b602082029050602081019050919050565b600080fd5b60006080828403121561126157611260611246565b5b61126b6080610ff1565b9050600061127b84828501610f20565b600083015250602061128f84828501610f20565b60208301525060406112a384828501610f20565b60408301525060606112b784828501610f20565b60608301525092915050565b60006112d66112d18461121a565b610ff1565b905080838252602082019050608084028301858111156112f9576112f8611038565b5b835b81811015611322578061130e888261124b565b8452602084019350506080810190506112fb565b5050509392505050565b600082601f83011261134157611340610f8c565b5b81356113518482602086016112c3565b91505092915050565b6000602082840312156113705761136f610ced565b5b600082013567ffffffffffffffff81111561138e5761138d610cf2565b5b61139a8482850161132c565b91505092915050565b600081519050919050565b600082825260208201905092915050565b6000819050602082019050919050565b6113d881610eff565b82525050565b6040820160008201516113f460008501826113cf565b50602082015161140760208501826113cf565b50505050565b600061141983836113de565b60408301905092915050565b6000602082019050919050565b600061143d826113a3565b61144781856113ae565b9350611452836113bf565b8060005b8381101561148357815161146a888261140d565b975061147583611425565b925050600181019050611456565b5085935050505092915050565b600060208201905081810360008301526114aa8184611432565b905092915050565b7f4e487b7100000000000000000000000000000000000000000000000000000000600052602260045260246000fd5b600060028204905060018216806114f957607f821691505b60208210810361150c5761150b6114b2565b5b50919050565b600082825260208201905092915050565b7f4f776e61626c653a2063616c6c6572206973206e6f7420746865206f776e6572600082015250565b6000611559602083611512565b915061156482611523565b602082019050919050565b600060208201905081810360008301526115888161154c565b9050919050565b7f4e487b7100000000000000000000000000000000000000000000000000000000600052603260045260246000fd5b7f4e487b7100000000000000000000000000000000000000000000000000000000600052601160045260246000fd5b6000819050919050565b6000611602826115ed565b91507fffffffffffffffffffffffffffffffffffffffffffffffffffffffffffffffff8203611634576116336115be565b5b600182019050919050565b611648816115ed565b82525050565b600081549050919050565b60008190508160005260206000209050919050565b60008190508160005260206000209050919050565b60008154611690816114e1565b61169a8186610db9565b945060018216600081146116b557600181146116c7576116fa565b60ff19831686526020860193506116fa565b6116d08561166e565b60005b838110156116f2578154818901526001820191506020810190506116d3565b808801955050505b50505092915050565b600061170f8383611683565b905092915050565b6000600182019050919050565b600061172f8261164e565b6117398185610d8d565b93508360208202850161174b85611659565b8060005b85811015611786578484038952816117678582611703565b945061177283611717565b925060208a0199505060018101905061174f565b50829750879550505050505092915050565b60006060820190506117ad600083018661163f565b81810360208301526117bf8185610e68565b905081810360408301526117d38184611724565b9050949350505050565b600081519050919050565b600082825260208201905092915050565b6000819050602082019050919050565b60808201600082015161181f60008501826113cf565b50602082015161183260208501826113cf565b50604082015161184560408501826113cf565b50606082015161185860608501826113cf565b50505050565b600061186a8383611809565b60808301905092915050565b6000602082019050919050565b600061188e826117dd565b61189881856117e8565b93506118a3836117f9565b8060005b838110156118d45781516118bb888261185e565b97506118c683611876565b9250506001810190506118a7565b5085935050505092915050565b600060208201905081810360008301526118fb8184611883565b905092915050565b7f4f776e61626c653a206e6577206f776e657220697320746865207a65726f206160008201527f6464726573730000000000000000000000000000000000000000000000000000602082015250565b600061195f602683611512565b915061196a82611903565b604082019050919050565b6000602082019050818103600083015261198e81611952565b9050919050565b60006119a0826115ed565b91506119ab836115ed565b9250827fffffffffffffffffffffffffffffffffffffffffffffffffffffffffffffffff038211156119e0576119df6115be565b5b82820190509291505056fea26469706673582212206ee2b00e404b852ec3828d80456a8760eb7d1688569361f345e02ad6d91f1afa64736f6c634300080d0033",
  "immutableReferences": {},
  "source": "// SPDX-License-Identifier: GPL-3.0\r\npragma solidity >=0.7.0 <0.9.0;\r\nimport \"@openzeppelin/contracts/access/Ownable.sol\";\r\n\r\ncontract accessAuth is Ownable(){\r\n\r\n    \r\n    struct updateData{\r\n        bytes32 from;\r\n        bytes32 to;\r\n        bytes32 token;\r\n        bytes32 label;\r\n    }\r\n\r\n    struct node{\r\n        bytes32 id;\r\n        bytes32 token;\r\n    }\r\n\r\n    mapping(bytes32 => node[]) catalogue;\r\n    mapping(address => string[]) capabilityList;\r\n    mapping(bytes32 => bytes32) labels;\r\n\r\n    event CapabilityListUpdated(\r\n        address indexed _buyer,\r\n        uint price,\r\n        string[] oldCababilityList,\r\n        string[] newCapabilityList\r\n    );\r\n\r\n    event UpdateData(updateData[]);\r\n\r\n\r\n    /** \r\n       @notice Updates a user's capability list (after a payment) adding the new purchased resources to the list. The ETH tokens are directly transfered to the owner of the contract. The capability list is a list of strings where a string identifies a resource\r\n       @param _resources List of strings\r\n    */\r\n    function buyResources(string[] memory _resources) external payable {\r\n        string[] memory oldCap = capabilityList[msg.sender];\r\n\r\n        for(uint i=0; i < _resources.length; i++){\r\n            capabilityList[msg.sender].push(_resources[i]); \r\n        }\r\n        \r\n        payable(owner()).transfer(msg.value);\r\n\r\n        emit CapabilityListUpdated(msg.sender, msg.value, oldCap,capabilityList[msg.sender]);\r\n    }\r\n\r\n\r\n    /**\r\n        @notice Thanks to the changes in the local KDS the catalog is updated allowing a buyer to access the recources according to his capability list. It also adds the labels for the key derivation.\r\n        @param _updateData List of tuple of the form: (from,to,token,label)\r\n     */\r\n    function updateCatalogue(updateData[] memory _updateData) onlyOwner() external{\r\n        node memory tempNode;\r\n        uint idx;\r\n\r\n        for(uint i=0; i < _updateData.length; i++){\r\n            bytes32 from = _updateData[i].from;\r\n            bytes32 to = _updateData[i].to;\r\n\r\n            tempNode.id = to;\r\n            tempNode.token = _updateData[i].token;\r\n            (tempNode,idx) = _updateElementsInNode(catalogue[from],tempNode);\r\n\r\n            if(idx > catalogue[from].length){\r\n                catalogue[from].push(tempNode);\r\n            }else{\r\n                catalogue[from][idx] = tempNode;\r\n            }\r\n\r\n            labels[to] = _updateData[i].label;\r\n        }\r\n\r\n        emit UpdateData(_updateData);\r\n    }\r\n\r\n    /**\r\n        @notice A node can have a bunch of nodes connected to it. This function tries to find if a new node (_data) is already connected and then the value is changed, otherwise it must be pushed as a new node.\r\n        @param _node List of nodes connected to a parent node. For example the node \"abc\" may be connected to the nodes \"a,b,c\"\r\n        @param _data Data of a node that needs to be changed or added\r\n        @return A tuple with the node and the position index \r\n    */\r\n    function _updateElementsInNode(node[] memory _node,node memory _data) private pure returns(node memory,uint){\r\n        for(uint i=0; i < _node.length; i++){\r\n            if(_node[i].id == _data.id){\r\n                //_node[i].token = _data.token;\r\n                return (_data,i);\r\n            }\r\n        }\r\n\r\n        return (_data,_node.length+1);\r\n    }\r\n\r\n    function getCapabilityListByAddress(address _buyer) external view returns(string[] memory) {\r\n        return capabilityList[_buyer];\r\n    }\r\n\r\n    function getTokens(bytes32 _from) external view returns(node[] memory){\r\n        return catalogue[_from];\r\n    }\r\n\r\n    function getLabel(bytes32 _edge) external view returns(bytes32){\r\n        return labels[_edge];\r\n    }\r\n\r\n\r\n}",
  "sourcePath": "D:\\Users\\richi\\Desktop\\DataMarketplace\\smart-contract\\contracts\\accessAuth.sol",
  "compiler": {
    "name": "solc",
    "version": "0.8.13+commit.abaa5c0e.Emscripten.clang"
  },
  "schemaVersion": "3.4.7",
  "updatedAt": "2022-05-10T09:50:21.724Z",
  "devdoc": {
    "kind": "dev",
    "methods": {
      "buyResources(string[])": {
        "params": {
          "_resources": "List of strings"
        }
      },
      "owner()": {
        "details": "Returns the address of the current owner."
      },
      "renounceOwnership()": {
        "details": "Leaves the contract without owner. It will not be possible to call `onlyOwner` functions anymore. Can only be called by the current owner. NOTE: Renouncing ownership will leave the contract without an owner, thereby removing any functionality that is only available to the owner."
      },
      "transferOwnership(address)": {
        "details": "Transfers ownership of the contract to a new account (`newOwner`). Can only be called by the current owner."
      },
      "updateCatalogue((bytes32,bytes32,bytes32,bytes32)[])": {
        "params": {
          "_updateData": "List of tuple of the form: (from,to,token,label)"
        }
      }
    },
    "version": 1
  },
  "userdoc": {
    "kind": "user",
    "methods": {
      "buyResources(string[])": {
        "notice": "Updates a user's capability list (after a payment) adding the new purchased resources to the list. The ETH tokens are directly transfered to the owner of the contract. The capability list is a list of strings where a string identifies a resource"
      },
      "updateCatalogue((bytes32,bytes32,bytes32,bytes32)[])": {
        "notice": "Thanks to the changes in the local KDS the catalog is updated allowing a buyer to access the recources according to his capability list. It also adds the labels for the key derivation."
      }
    },
    "version": 1
  }
}