{
  "contractName": "accessAuth",
  "abi": [
    {
      "anonymous": false,
      "inputs": [
        {
          "indexed": true,
          "internalType": "address",
          "name": "_buyer",
          "type": "address"
        },
        {
          "indexed": false,
          "internalType": "uint256",
          "name": "price",
          "type": "uint256"
        },
        {
          "indexed": false,
          "internalType": "string[]",
          "name": "newCapabilityList",
          "type": "string[]"
        }
      ],
      "name": "CapabilityListUpdated",
      "type": "event"
    },
    {
      "anonymous": false,
      "inputs": [
        {
          "indexed": true,
          "internalType": "address",
          "name": "previousOwner",
          "type": "address"
        },
        {
          "indexed": true,
          "internalType": "address",
          "name": "newOwner",
          "type": "address"
        }
      ],
      "name": "OwnershipTransferred",
      "type": "event"
    },
    {
      "anonymous": false,
      "inputs": [
        {
          "components": [
            {
              "internalType": "bytes2",
              "name": "from",
              "type": "bytes2"
            },
            {
              "internalType": "bytes2",
              "name": "to",
              "type": "bytes2"
            },
            {
              "internalType": "bytes32",
              "name": "token",
              "type": "bytes32"
            },
            {
              "internalType": "bytes32",
              "name": "label",
              "type": "bytes32"
            }
          ],
          "indexed": false,
          "internalType": "struct accessAuth.updateData[]",
          "name": "",
          "type": "tuple[]"
        }
      ],
      "name": "UpdateData",
      "type": "event"
    },
    {
      "inputs": [],
      "name": "owner",
      "outputs": [
        {
          "internalType": "address",
          "name": "",
          "type": "address"
        }
      ],
      "stateMutability": "view",
      "type": "function"
    },
    {
      "inputs": [],
      "name": "renounceOwnership",
      "outputs": [],
      "stateMutability": "nonpayable",
      "type": "function"
    },
    {
      "inputs": [
        {
          "internalType": "address",
          "name": "newOwner",
          "type": "address"
        }
      ],
      "name": "transferOwnership",
      "outputs": [],
      "stateMutability": "nonpayable",
      "type": "function"
    },
    {
      "inputs": [
        {
          "internalType": "string[]",
          "name": "_resources",
          "type": "string[]"
        }
      ],
      "name": "buyResources",
      "outputs": [],
      "stateMutability": "payable",
      "type": "function"
    },
    {
      "inputs": [
        {
          "components": [
            {
              "internalType": "bytes2",
              "name": "from",
              "type": "bytes2"
            },
            {
              "internalType": "bytes2",
              "name": "to",
              "type": "bytes2"
            },
            {
              "internalType": "bytes32",
              "name": "token",
              "type": "bytes32"
            },
            {
              "internalType": "bytes32",
              "name": "label",
              "type": "bytes32"
            }
          ],
          "internalType": "struct accessAuth.updateData[]",
          "name": "_updateData",
          "type": "tuple[]"
        }
      ],
      "name": "updateCatalogue",
      "outputs": [],
      "stateMutability": "nonpayable",
      "type": "function"
    },
    {
      "inputs": [
        {
          "internalType": "address",
          "name": "_buyer",
          "type": "address"
        }
      ],
      "name": "getCapabilityListByAddress",
      "outputs": [
        {
          "internalType": "string[]",
          "name": "",
          "type": "string[]"
        }
      ],
      "stateMutability": "view",
      "type": "function"
    },
    {
      "inputs": [
        {
          "internalType": "bytes2",
          "name": "_from",
          "type": "bytes2"
        }
      ],
      "name": "getTokens",
      "outputs": [
        {
          "components": [
            {
              "internalType": "bytes2",
              "name": "id",
              "type": "bytes2"
            },
            {
              "internalType": "bytes32",
              "name": "token",
              "type": "bytes32"
            }
          ],
          "internalType": "struct accessAuth.node[]",
          "name": "",
          "type": "tuple[]"
        }
      ],
      "stateMutability": "view",
      "type": "function"
    },
    {
      "inputs": [
        {
          "internalType": "bytes32",
          "name": "_edge",
          "type": "bytes32"
        }
      ],
      "name": "getLabel",
      "outputs": [
        {
          "internalType": "bytes32",
          "name": "",
          "type": "bytes32"
        }
      ],
      "stateMutability": "view",
      "type": "function"
    }
  ],
  "bytecode": "0x608060405234801561001057600080fd5b5061002d61002261003260201b60201c565b61003a60201b60201c565b6100fe565b600033905090565b60008060009054906101000a900473ffffffffffffffffffffffffffffffffffffffff169050816000806101000a81548173ffffffffffffffffffffffffffffffffffffffff021916908373ffffffffffffffffffffffffffffffffffffffff1602179055508173ffffffffffffffffffffffffffffffffffffffff168173ffffffffffffffffffffffffffffffffffffffff167f8be0079c531659141344cd1fd0a4f28419497f9722a3daafe3b4186f6b6457e060405160405180910390a35050565b611c678061010d6000396000f3fe60806040526004361061007b5760003560e01c80637c52f1b51161004e5780637c52f1b51461013a5780638da5cb5b14610156578063e1fb6c2e14610181578063f2fde38b146101be5761007b565b806306e53709146100805780635330c1b5146100bd578063715018a6146100fa5780637afb20bd14610111575b600080fd5b34801561008c57600080fd5b506100a760048036038101906100a29190610f1c565b6101e7565b6040516100b491906110a4565b60405180910390f35b3480156100c957600080fd5b506100e460048036038101906100df91906110fc565b6102ff565b6040516100f19190611138565b60405180910390f35b34801561010657600080fd5b5061010f61031c565b005b34801561011d57600080fd5b5061013860048036038101906101339190611370565b6103a4565b005b610154600480360381019061014f919061154f565b610875565b005b34801561016257600080fd5b5061016b610a07565b60405161017891906115a7565b60405180910390f35b34801561018d57600080fd5b506101a860048036038101906101a391906115c2565b610a30565b6040516101b591906116eb565b60405180910390f35b3480156101ca57600080fd5b506101e560048036038101906101e09190610f1c565b610b47565b005b6060600260008373ffffffffffffffffffffffffffffffffffffffff1673ffffffffffffffffffffffffffffffffffffffff168152602001908152602001600020805480602002602001604051908101604052809291908181526020016000905b828210156102f45783829060005260206000200180546102679061173c565b80601f01602080910402602001604051908101604052809291908181526020018280546102939061173c565b80156102e05780601f106102b5576101008083540402835291602001916102e0565b820191906000526020600020905b8154815290600101906020018083116102c357829003601f168201915b505050505081526020019060010190610248565b505050509050919050565b600060036000838152602001908152602001600020549050919050565b610324610c3e565b73ffffffffffffffffffffffffffffffffffffffff16610342610a07565b73ffffffffffffffffffffffffffffffffffffffff1614610398576040517f08c379a000000000000000000000000000000000000000000000000000000000815260040161038f906117ca565b60405180910390fd5b6103a26000610c46565b565b6103ac610c3e565b73ffffffffffffffffffffffffffffffffffffffff166103ca610a07565b73ffffffffffffffffffffffffffffffffffffffff1614610420576040517f08c379a0000000000000000000000000000000000000000000000000000000008152600401610417906117ca565b60405180910390fd5b610428610dc9565b600080600090505b835181101561083857600084828151811061044e5761044d6117ea565b5b60200260200101516000015190506000858381518110610471576104706117ea565b5b60200260200101516020015190508085600001907dffffffffffffffffffffffffffffffffffffffffffffffffffffffffffff191690817dffffffffffffffffffffffffffffffffffffffffffffffffffffffffffff1916815250508583815181106104e0576104df6117ea565b5b60200260200101516040015185602001818152505061060c60016000847dffffffffffffffffffffffffffffffffffffffffffffffffffffffffffff19167dffffffffffffffffffffffffffffffffffffffffffffffffffffffffffff19168152602001908152602001600020805480602002602001604051908101604052809291908181526020016000905b8282101561060257838290600052602060002090600202016040518060400160405290816000820160009054906101000a900460f01b7dffffffffffffffffffffffffffffffffffffffffffffffffffffffffffff19167dffffffffffffffffffffffffffffffffffffffffffffffffffffffffffff191681526020016001820154815250508152602001906001019061056d565b5050505086610d0a565b809550819650505060016000837dffffffffffffffffffffffffffffffffffffffffffffffffffffffffffff19167dffffffffffffffffffffffffffffffffffffffffffffffffffffffffffff19168152602001908152602001600020805490508411156107265760016000837dffffffffffffffffffffffffffffffffffffffffffffffffffffffffffff19167dffffffffffffffffffffffffffffffffffffffffffffffffffffffffffff1916815260200190815260200160002085908060018154018082558091505060019003906000526020600020906002020160009091909190915060008201518160000160006101000a81548161ffff021916908360f01c02179055506020820151816001015550506107cc565b8460016000847dffffffffffffffffffffffffffffffffffffffffffffffffffffffffffff19167dffffffffffffffffffffffffffffffffffffffffffffffffffffffffffff19168152602001908152602001600020858154811061078e5761078d6117ea565b5b906000526020600020906002020160008201518160000160006101000a81548161ffff021916908360f01c0217905550602082015181600101559050505b8583815181106107df576107de6117ea565b5b60200260200101516060015160036000837dffffffffffffffffffffffffffffffffffffffffffffffffffffffffffff19168152602001908152602001600020819055505050808061083090611852565b915050610430565b507fb1a8dcbfaf80fee6a06965c784d520781563d46f100e5f5cf213d3bd8f74ff6b83604051610868919061199e565b60405180910390a1505050565b60005b815181101561092757600260003373ffffffffffffffffffffffffffffffffffffffff1673ffffffffffffffffffffffffffffffffffffffff1681526020019081526020016000208282815181106108d3576108d26117ea565b5b6020026020010151908060018154018082558091505060019003906000526020600020016000909190919091509080519060200190610913929190610e07565b50808061091f90611852565b915050610878565b50610930610a07565b73ffffffffffffffffffffffffffffffffffffffff166108fc349081150290604051600060405180830381858888f19350505050158015610975573d6000803e3d6000fd5b503373ffffffffffffffffffffffffffffffffffffffff167f126415ed4f65b665b44f25dacca1fdd7917295e2b4d3bb67d08775ab5f3e646e34600260003373ffffffffffffffffffffffffffffffffffffffff1673ffffffffffffffffffffffffffffffffffffffff1681526020019081526020016000206040516109fc929190611b19565b60405180910390a250565b60008060009054906101000a900473ffffffffffffffffffffffffffffffffffffffff16905090565b606060016000837dffffffffffffffffffffffffffffffffffffffffffffffffffffffffffff19167dffffffffffffffffffffffffffffffffffffffffffffffffffffffffffff19168152602001908152602001600020805480602002602001604051908101604052809291908181526020016000905b82821015610b3c57838290600052602060002090600202016040518060400160405290816000820160009054906101000a900460f01b7dffffffffffffffffffffffffffffffffffffffffffffffffffffffffffff19167dffffffffffffffffffffffffffffffffffffffffffffffffffffffffffff1916815260200160018201548152505081526020019060010190610aa7565b505050509050919050565b610b4f610c3e565b73ffffffffffffffffffffffffffffffffffffffff16610b6d610a07565b73ffffffffffffffffffffffffffffffffffffffff1614610bc3576040517f08c379a0000000000000000000000000000000000000000000000000000000008152600401610bba906117ca565b60405180910390fd5b600073ffffffffffffffffffffffffffffffffffffffff168173ffffffffffffffffffffffffffffffffffffffff1603610c32576040517f08c379a0000000000000000000000000000000000000000000000000000000008152600401610c2990611bbb565b60405180910390fd5b610c3b81610c46565b50565b600033905090565b60008060009054906101000a900473ffffffffffffffffffffffffffffffffffffffff169050816000806101000a81548173ffffffffffffffffffffffffffffffffffffffff021916908373ffffffffffffffffffffffffffffffffffffffff1602179055508173ffffffffffffffffffffffffffffffffffffffff168173ffffffffffffffffffffffffffffffffffffffff167f8be0079c531659141344cd1fd0a4f28419497f9722a3daafe3b4186f6b6457e060405160405180910390a35050565b610d12610dc9565b600080600090505b8451811015610dad5783600001517dffffffffffffffffffffffffffffffffffffffffffffffffffffffffffff1916858281518110610d5c57610d5b6117ea565b5b6020026020010151600001517dffffffffffffffffffffffffffffffffffffffffffffffffffffffffffff191603610d9a5783819250925050610dc2565b8080610da590611852565b915050610d1a565b508260018551610dbd9190611bdb565b915091505b9250929050565b604051806040016040528060007dffffffffffffffffffffffffffffffffffffffffffffffffffffffffffff19168152602001600080191681525090565b828054610e139061173c565b90600052602060002090601f016020900481019282610e355760008555610e7c565b82601f10610e4e57805160ff1916838001178555610e7c565b82800160010185558215610e7c579182015b82811115610e7b578251825591602001919060010190610e60565b5b509050610e899190610e8d565b5090565b5b80821115610ea6576000816000905550600101610e8e565b5090565b6000604051905090565b600080fd5b600080fd5b600073ffffffffffffffffffffffffffffffffffffffff82169050919050565b6000610ee982610ebe565b9050919050565b610ef981610ede565b8114610f0457600080fd5b50565b600081359050610f1681610ef0565b92915050565b600060208284031215610f3257610f31610eb4565b5b6000610f4084828501610f07565b91505092915050565b600081519050919050565b600082825260208201905092915050565b6000819050602082019050919050565b600081519050919050565b600082825260208201905092915050565b60005b83811015610faf578082015181840152602081019050610f94565b83811115610fbe576000848401525b50505050565b6000601f19601f8301169050919050565b6000610fe082610f75565b610fea8185610f80565b9350610ffa818560208601610f91565b61100381610fc4565b840191505092915050565b600061101a8383610fd5565b905092915050565b6000602082019050919050565b600061103a82610f49565b6110448185610f54565b93508360208202850161105685610f65565b8060005b858110156110925784840389528151611073858261100e565b945061107e83611022565b925060208a0199505060018101905061105a565b50829750879550505050505092915050565b600060208201905081810360008301526110be818461102f565b905092915050565b6000819050919050565b6110d9816110c6565b81146110e457600080fd5b50565b6000813590506110f6816110d0565b92915050565b60006020828403121561111257611111610eb4565b5b6000611120848285016110e7565b91505092915050565b611132816110c6565b82525050565b600060208201905061114d6000830184611129565b92915050565b600080fd5b7f4e487b7100000000000000000000000000000000000000000000000000000000600052604160045260246000fd5b61119082610fc4565b810181811067ffffffffffffffff821117156111af576111ae611158565b5b80604052505050565b60006111c2610eaa565b90506111ce8282611187565b919050565b600067ffffffffffffffff8211156111ee576111ed611158565b5b602082029050602081019050919050565b600080fd5b600080fd5b60007fffff00000000000000000000000000000000000000000000000000000000000082169050919050565b61123e81611209565b811461124957600080fd5b50565b60008135905061125b81611235565b92915050565b60006080828403121561127757611276611204565b5b61128160806111b8565b905060006112918482850161124c565b60008301525060206112a58482850161124c565b60208301525060406112b9848285016110e7565b60408301525060606112cd848285016110e7565b60608301525092915050565b60006112ec6112e7846111d3565b6111b8565b9050808382526020820190506080840283018581111561130f5761130e6111ff565b5b835b8181101561133857806113248882611261565b845260208401935050608081019050611311565b5050509392505050565b600082601f83011261135757611356611153565b5b81356113678482602086016112d9565b91505092915050565b60006020828403121561138657611385610eb4565b5b600082013567ffffffffffffffff8111156113a4576113a3610eb9565b5b6113b084828501611342565b91505092915050565b600067ffffffffffffffff8211156113d4576113d3611158565b5b602082029050602081019050919050565b600080fd5b600067ffffffffffffffff82111561140557611404611158565b5b61140e82610fc4565b9050602081019050919050565b82818337600083830152505050565b600061143d611438846113ea565b6111b8565b905082815260208101848484011115611459576114586113e5565b5b61146484828561141b565b509392505050565b600082601f83011261148157611480611153565b5b813561149184826020860161142a565b91505092915050565b60006114ad6114a8846113b9565b6111b8565b905080838252602082019050602084028301858111156114d0576114cf6111ff565b5b835b8181101561151757803567ffffffffffffffff8111156114f5576114f4611153565b5b808601611502898261146c565b855260208501945050506020810190506114d2565b5050509392505050565b600082601f83011261153657611535611153565b5b813561154684826020860161149a565b91505092915050565b60006020828403121561156557611564610eb4565b5b600082013567ffffffffffffffff81111561158357611582610eb9565b5b61158f84828501611521565b91505092915050565b6115a181610ede565b82525050565b60006020820190506115bc6000830184611598565b92915050565b6000602082840312156115d8576115d7610eb4565b5b60006115e68482850161124c565b91505092915050565b600081519050919050565b600082825260208201905092915050565b6000819050602082019050919050565b61162481611209565b82525050565b611633816110c6565b82525050565b60408201600082015161164f600085018261161b565b506020820151611662602085018261162a565b50505050565b60006116748383611639565b60408301905092915050565b6000602082019050919050565b6000611698826115ef565b6116a281856115fa565b93506116ad8361160b565b8060005b838110156116de5781516116c58882611668565b97506116d083611680565b9250506001810190506116b1565b5085935050505092915050565b60006020820190508181036000830152611705818461168d565b905092915050565b7f4e487b7100000000000000000000000000000000000000000000000000000000600052602260045260246000fd5b6000600282049050600182168061175457607f821691505b6020821081036117675761176661170d565b5b50919050565b600082825260208201905092915050565b7f4f776e61626c653a2063616c6c6572206973206e6f7420746865206f776e6572600082015250565b60006117b460208361176d565b91506117bf8261177e565b602082019050919050565b600060208201905081810360008301526117e3816117a7565b9050919050565b7f4e487b7100000000000000000000000000000000000000000000000000000000600052603260045260246000fd5b7f4e487b7100000000000000000000000000000000000000000000000000000000600052601160045260246000fd5b6000819050919050565b600061185d82611848565b91507fffffffffffffffffffffffffffffffffffffffffffffffffffffffffffffffff820361188f5761188e611819565b5b600182019050919050565b600081519050919050565b600082825260208201905092915050565b6000819050602082019050919050565b6080820160008201516118dc600085018261161b565b5060208201516118ef602085018261161b565b506040820151611902604085018261162a565b506060820151611915606085018261162a565b50505050565b600061192783836118c6565b60808301905092915050565b6000602082019050919050565b600061194b8261189a565b61195581856118a5565b9350611960836118b6565b8060005b83811015611991578151611978888261191b565b975061198383611933565b925050600181019050611964565b5085935050505092915050565b600060208201905081810360008301526119b88184611940565b905092915050565b6119c981611848565b82525050565b600081549050919050565b60008190508160005260206000209050919050565b60008190508160005260206000209050919050565b60008154611a118161173c565b611a1b8186610f80565b94506001821660008114611a365760018114611a4857611a7b565b60ff1983168652602086019350611a7b565b611a51856119ef565b60005b83811015611a7357815481890152600182019150602081019050611a54565b808801955050505b50505092915050565b6000611a908383611a04565b905092915050565b6000600182019050919050565b6000611ab0826119cf565b611aba8185610f54565b935083602082028501611acc856119da565b8060005b85811015611b0757848403895281611ae88582611a84565b9450611af383611a98565b925060208a01995050600181019050611ad0565b50829750879550505050505092915050565b6000604082019050611b2e60008301856119c0565b8181036020830152611b408184611aa5565b90509392505050565b7f4f776e61626c653a206e6577206f776e657220697320746865207a65726f206160008201527f6464726573730000000000000000000000000000000000000000000000000000602082015250565b6000611ba560268361176d565b9150611bb082611b49565b604082019050919050565b60006020820190508181036000830152611bd481611b98565b9050919050565b6000611be682611848565b9150611bf183611848565b9250827fffffffffffffffffffffffffffffffffffffffffffffffffffffffffffffffff03821115611c2657611c25611819565b5b82820190509291505056fea264697066735822122016991a9ac1142c34ecf05d3d5093132db6101e1c619a8b2fe4dd0672957c29e164736f6c634300080d0033",
  "immutableReferences": {},
  "source": "// SPDX-License-Identifier: GPL-3.0\r\npragma solidity >=0.7.0 <0.9.0;\r\nimport \"@openzeppelin/contracts/access/Ownable.sol\";\r\n\r\ncontract accessAuth is Ownable(){\r\n\r\n    \r\n    struct updateData{\r\n        bytes2 from;\r\n        bytes2 to;\r\n        bytes32 token;\r\n        bytes32 label;\r\n    }\r\n\r\n    struct node{\r\n        bytes2 id;\r\n        bytes32 token;\r\n    }\r\n\r\n    mapping(bytes2 => node[]) catalogue;\r\n    mapping(address => string[]) capabilityList;\r\n    mapping(bytes32 => bytes32) labels;\r\n\r\n    event CapabilityListUpdated(\r\n        address indexed _buyer,\r\n        uint price,\r\n        string[] newCapabilityList\r\n    );\r\n\r\n    event UpdateData(updateData[]);\r\n\r\n\r\n    /** \r\n       @notice Updates a user's capability list (after a payment) adding the new purchased resources to the list. The ETH tokens are directly transfered to the owner of the contract. The capability list is a list of strings where a string identifies a resource\r\n       @param _resources List of strings\r\n    */\r\n    function buyResources(string[] memory _resources) external payable {\r\n        //string[] memory oldCap = capabilityList[msg.sender];\r\n\r\n        for(uint i=0; i < _resources.length; i++){\r\n            capabilityList[msg.sender].push(_resources[i]); \r\n        }\r\n        \r\n        payable(owner()).transfer(msg.value);\r\n\r\n        emit CapabilityListUpdated(msg.sender, msg.value,capabilityList[msg.sender]);\r\n    }\r\n\r\n\r\n    /**\r\n        @notice Thanks to the changes in the local KDS the catalog is updated allowing a buyer to access the recources according to his capability list. It also adds the labels for the key derivation.\r\n        @param _updateData List of tuple of the form: (from,to,token,label)\r\n     */\r\n    function updateCatalogue(updateData[] memory _updateData) onlyOwner() external{\r\n        node memory tempNode;\r\n        uint idx;\r\n\r\n        for(uint i=0; i < _updateData.length; i++){\r\n            bytes2 from = _updateData[i].from;\r\n            bytes2 to = _updateData[i].to;\r\n\r\n            tempNode.id = to;\r\n            tempNode.token = _updateData[i].token;\r\n            (tempNode,idx) = _updateElementsInNode(catalogue[from],tempNode);\r\n\r\n            if(idx > catalogue[from].length){\r\n                catalogue[from].push(tempNode);\r\n            }else{\r\n                catalogue[from][idx] = tempNode;\r\n            }\r\n\r\n            labels[to] = _updateData[i].label;\r\n        }\r\n\r\n        emit UpdateData(_updateData);\r\n    }\r\n\r\n    /**\r\n        @notice A node can have a bunch of nodes connected to it. This function tries to find if a new node (_data) is already connected and then the value is changed, otherwise it must be pushed as a new node.\r\n        @param _node List of nodes connected to a parent node. For example the node \"abc\" may be connected to the nodes \"a,b,c\"\r\n        @param _data Data of a node that needs to be changed or added\r\n        @return A tuple with the node and the position index \r\n    */\r\n    function _updateElementsInNode(node[] memory _node,node memory _data) private pure returns(node memory,uint){\r\n        for(uint i=0; i < _node.length; i++){\r\n            if(_node[i].id == _data.id){\r\n                //_node[i].token = _data.token;\r\n                return (_data,i);\r\n            }\r\n        }\r\n\r\n        return (_data,_node.length+1);\r\n    }\r\n\r\n    function getCapabilityListByAddress(address _buyer) external view returns(string[] memory) {\r\n        return capabilityList[_buyer];\r\n    }\r\n\r\n    function getTokens(bytes2 _from) external view returns(node[] memory){\r\n        return catalogue[_from];\r\n    }\r\n\r\n    function getLabel(bytes32 _edge) external view returns(bytes32){\r\n        return labels[_edge];\r\n    }\r\n\r\n\r\n}",
  "sourcePath": "D:\\Users\\richi\\Desktop\\DataMarketplace\\smart-contract\\contracts\\accessAuth.sol",
  "compiler": {
    "name": "solc",
    "version": "0.8.13+commit.abaa5c0e.Emscripten.clang"
  },
  "schemaVersion": "3.4.7",
  "updatedAt": "2022-05-15T14:32:35.682Z",
  "devdoc": {
    "kind": "dev",
    "methods": {
      "buyResources(string[])": {
        "params": {
          "_resources": "List of strings"
        }
      },
      "owner()": {
        "details": "Returns the address of the current owner."
      },
      "renounceOwnership()": {
        "details": "Leaves the contract without owner. It will not be possible to call `onlyOwner` functions anymore. Can only be called by the current owner. NOTE: Renouncing ownership will leave the contract without an owner, thereby removing any functionality that is only available to the owner."
      },
      "transferOwnership(address)": {
        "details": "Transfers ownership of the contract to a new account (`newOwner`). Can only be called by the current owner."
      },
      "updateCatalogue((bytes2,bytes2,bytes32,bytes32)[])": {
        "params": {
          "_updateData": "List of tuple of the form: (from,to,token,label)"
        }
      }
    },
    "version": 1
  },
  "userdoc": {
    "kind": "user",
    "methods": {
      "buyResources(string[])": {
        "notice": "Updates a user's capability list (after a payment) adding the new purchased resources to the list. The ETH tokens are directly transfered to the owner of the contract. The capability list is a list of strings where a string identifies a resource"
      },
      "updateCatalogue((bytes2,bytes2,bytes32,bytes32)[])": {
        "notice": "Thanks to the changes in the local KDS the catalog is updated allowing a buyer to access the recources according to his capability list. It also adds the labels for the key derivation."
      }
    },
    "version": 1
  }
}