{
  "contractName": "accessAuth",
  "abi": [
    {
      "anonymous": false,
      "inputs": [
        {
          "indexed": true,
          "internalType": "address",
          "name": "_buyer",
          "type": "address"
        },
        {
          "indexed": false,
          "internalType": "uint256",
          "name": "price",
          "type": "uint256"
        },
        {
          "indexed": false,
          "internalType": "string[]",
          "name": "BoughtResources",
          "type": "string[]"
        }
      ],
      "name": "CapabilityListUpdated",
      "type": "event"
    },
    {
      "anonymous": false,
      "inputs": [
        {
          "indexed": true,
          "internalType": "address",
          "name": "previousOwner",
          "type": "address"
        },
        {
          "indexed": true,
          "internalType": "address",
          "name": "newOwner",
          "type": "address"
        }
      ],
      "name": "OwnershipTransferred",
      "type": "event"
    },
    {
      "anonymous": false,
      "inputs": [
        {
          "components": [
            {
              "internalType": "bytes3",
              "name": "from",
              "type": "bytes3"
            },
            {
              "internalType": "bytes3",
              "name": "to",
              "type": "bytes3"
            },
            {
              "internalType": "bytes32",
              "name": "token",
              "type": "bytes32"
            },
            {
              "internalType": "bytes32",
              "name": "label",
              "type": "bytes32"
            }
          ],
          "indexed": false,
          "internalType": "struct accessAuth.updateData[]",
          "name": "",
          "type": "tuple[]"
        }
      ],
      "name": "UpdateData",
      "type": "event"
    },
    {
      "inputs": [],
      "name": "owner",
      "outputs": [
        {
          "internalType": "address",
          "name": "",
          "type": "address"
        }
      ],
      "stateMutability": "view",
      "type": "function"
    },
    {
      "inputs": [],
      "name": "renounceOwnership",
      "outputs": [],
      "stateMutability": "nonpayable",
      "type": "function"
    },
    {
      "inputs": [
        {
          "internalType": "address",
          "name": "newOwner",
          "type": "address"
        }
      ],
      "name": "transferOwnership",
      "outputs": [],
      "stateMutability": "nonpayable",
      "type": "function"
    },
    {
      "inputs": [
        {
          "internalType": "string[]",
          "name": "_resources",
          "type": "string[]"
        }
      ],
      "name": "buyResources",
      "outputs": [],
      "stateMutability": "payable",
      "type": "function"
    },
    {
      "inputs": [
        {
          "components": [
            {
              "internalType": "bytes3",
              "name": "from",
              "type": "bytes3"
            },
            {
              "internalType": "bytes3",
              "name": "to",
              "type": "bytes3"
            },
            {
              "internalType": "bytes32",
              "name": "token",
              "type": "bytes32"
            },
            {
              "internalType": "bytes32",
              "name": "label",
              "type": "bytes32"
            }
          ],
          "internalType": "struct accessAuth.updateData[]",
          "name": "_updateData",
          "type": "tuple[]"
        }
      ],
      "name": "updateCatalogue",
      "outputs": [],
      "stateMutability": "nonpayable",
      "type": "function"
    },
    {
      "inputs": [
        {
          "internalType": "address",
          "name": "_buyer",
          "type": "address"
        }
      ],
      "name": "getCapabilityListByAddress",
      "outputs": [
        {
          "internalType": "string[]",
          "name": "",
          "type": "string[]"
        }
      ],
      "stateMutability": "view",
      "type": "function"
    },
    {
      "inputs": [
        {
          "internalType": "bytes3",
          "name": "_from",
          "type": "bytes3"
        }
      ],
      "name": "getTokens",
      "outputs": [
        {
          "components": [
            {
              "internalType": "bytes3",
              "name": "id",
              "type": "bytes3"
            },
            {
              "internalType": "bytes32",
              "name": "token",
              "type": "bytes32"
            }
          ],
          "internalType": "struct accessAuth.node[]",
          "name": "",
          "type": "tuple[]"
        }
      ],
      "stateMutability": "view",
      "type": "function"
    },
    {
      "inputs": [
        {
          "internalType": "bytes32",
          "name": "_edge",
          "type": "bytes32"
        }
      ],
      "name": "getLabel",
      "outputs": [
        {
          "internalType": "bytes32",
          "name": "",
          "type": "bytes32"
        }
      ],
      "stateMutability": "view",
      "type": "function"
    }
  ],
  "bytecode": "0x608060405234801561001057600080fd5b5061002d61002261003260201b60201c565b61003a60201b60201c565b6100fe565b600033905090565b60008060009054906101000a900473ffffffffffffffffffffffffffffffffffffffff169050816000806101000a81548173ffffffffffffffffffffffffffffffffffffffff021916908373ffffffffffffffffffffffffffffffffffffffff1602179055508173ffffffffffffffffffffffffffffffffffffffff168173ffffffffffffffffffffffffffffffffffffffff167f8be0079c531659141344cd1fd0a4f28419497f9722a3daafe3b4186f6b6457e060405160405180910390a35050565b611a898061010d6000396000f3fe60806040526004361061007b5760003560e01c80638da5cb5b1161004e5780638da5cb5b1461012d578063b8e993db14610158578063e1c31cae14610181578063f2fde38b146101be5761007b565b806306e53709146100805780635330c1b5146100bd578063715018a6146100fa5780637c52f1b514610111575b600080fd5b34801561008c57600080fd5b506100a760048036038101906100a29190610e88565b6101e7565b6040516100b49190611010565b60405180910390f35b3480156100c957600080fd5b506100e460048036038101906100df9190611068565b6102ff565b6040516100f191906110a4565b60405180910390f35b34801561010657600080fd5b5061010f61031c565b005b61012b600480360381019061012691906112da565b6103a4565b005b34801561013957600080fd5b506101426104fe565b60405161014f9190611332565b60405180910390f35b34801561016457600080fd5b5061017f600480360381019061017a91906114e5565b610527565b005b34801561018d57600080fd5b506101a860048036038101906101a3919061152e565b6109a0565b6040516101b59190611657565b60405180910390f35b3480156101ca57600080fd5b506101e560048036038101906101e09190610e88565b610ab3565b005b6060600260008373ffffffffffffffffffffffffffffffffffffffff1673ffffffffffffffffffffffffffffffffffffffff168152602001908152602001600020805480602002602001604051908101604052809291908181526020016000905b828210156102f4578382906000526020600020018054610267906116a8565b80601f0160208091040260200160405190810160405280929190818152602001828054610293906116a8565b80156102e05780601f106102b5576101008083540402835291602001916102e0565b820191906000526020600020905b8154815290600101906020018083116102c357829003601f168201915b505050505081526020019060010190610248565b505050509050919050565b600060036000838152602001908152602001600020549050919050565b610324610baa565b73ffffffffffffffffffffffffffffffffffffffff166103426104fe565b73ffffffffffffffffffffffffffffffffffffffff1614610398576040517f08c379a000000000000000000000000000000000000000000000000000000000815260040161038f90611736565b60405180910390fd5b6103a26000610bb2565b565b60008151905060005b8181101561045b57600260003373ffffffffffffffffffffffffffffffffffffffff1673ffffffffffffffffffffffffffffffffffffffff16815260200190815260200160002083828151811061040757610406611756565b5b6020026020010151908060018154018082558091505060019003906000526020600020016000909190919091509080519060200190610447929190610d36565b508080610453906117be565b9150506103ad565b506104646104fe565b73ffffffffffffffffffffffffffffffffffffffff166108fc349081150290604051600060405180830381858888f193505050501580156104a9573d6000803e3d6000fd5b503373ffffffffffffffffffffffffffffffffffffffff167f126415ed4f65b665b44f25dacca1fdd7917295e2b4d3bb67d08775ab5f3e646e34846040516104f2929190611815565b60405180910390a25050565b60008060009054906101000a900473ffffffffffffffffffffffffffffffffffffffff16905090565b61052f610baa565b73ffffffffffffffffffffffffffffffffffffffff1661054d6104fe565b73ffffffffffffffffffffffffffffffffffffffff16146105a3576040517f08c379a000000000000000000000000000000000000000000000000000000000815260040161059a90611736565b60405180910390fd5b6105ab610dbc565b60008083519050606060005b828110156109615760008682815181106105d4576105d3611756565b5b602002602001015160000151905060008783815181106105f7576105f6611756565b5b602002602001015160200151905060016000837cffffffffffffffffffffffffffffffffffffffffffffffffffffffffff19167cffffffffffffffffffffffffffffffffffffffffffffffffffffffffff19168152602001908152602001600020805480602002602001604051908101604052809291908181526020016000905b8282101561070b57838290600052602060002090600202016040518060400160405290816000820160009054906101000a900460e81b7cffffffffffffffffffffffffffffffffffffffffffffffffffffffffff19167cffffffffffffffffffffffffffffffffffffffffffffffffffffffffff1916815260200160018201548152505081526020019060010190610678565b5050505093508087600001907cffffffffffffffffffffffffffffffffffffffffffffffffffffffffff191690817cffffffffffffffffffffffffffffffffffffffffffffffffffffffffff1916815250508783815181106107705761076f611756565b5b60200260200101516040015187602001818152505061078f8488610c76565b809750819850505083518611156108515760016000837cffffffffffffffffffffffffffffffffffffffffffffffffffffffffff19167cffffffffffffffffffffffffffffffffffffffffffffffffffffffffff1916815260200190815260200160002087908060018154018082558091505060019003906000526020600020906002020160009091909190915060008201518160000160006101000a81548162ffffff021916908360e81c02179055506020820151816001015550506108f6565b8660016000847cffffffffffffffffffffffffffffffffffffffffffffffffffffffffff19167cffffffffffffffffffffffffffffffffffffffffffffffffffffffffff1916815260200190815260200160002087815481106108b7576108b6611756565b5b906000526020600020906002020160008201518160000160006101000a81548162ffffff021916908360e81c0217905550602082015181600101559050505b87838151811061090957610908611756565b5b60200260200101516060015160036000837cffffffffffffffffffffffffffffffffffffffffffffffffffffffffff191681526020019081526020016000208190555050508080610959906117be565b9150506105b7565b507fe841d0953427e2d08753c588904a45fad017b92cf04fb6f691b57dd4f6ea2f6c856040516109919190611949565b60405180910390a15050505050565b606060016000837cffffffffffffffffffffffffffffffffffffffffffffffffffffffffff19167cffffffffffffffffffffffffffffffffffffffffffffffffffffffffff19168152602001908152602001600020805480602002602001604051908101604052809291908181526020016000905b82821015610aa857838290600052602060002090600202016040518060400160405290816000820160009054906101000a900460e81b7cffffffffffffffffffffffffffffffffffffffffffffffffffffffffff19167cffffffffffffffffffffffffffffffffffffffffffffffffffffffffff1916815260200160018201548152505081526020019060010190610a15565b505050509050919050565b610abb610baa565b73ffffffffffffffffffffffffffffffffffffffff16610ad96104fe565b73ffffffffffffffffffffffffffffffffffffffff1614610b2f576040517f08c379a0000000000000000000000000000000000000000000000000000000008152600401610b2690611736565b60405180910390fd5b600073ffffffffffffffffffffffffffffffffffffffff168173ffffffffffffffffffffffffffffffffffffffff1603610b9e576040517f08c379a0000000000000000000000000000000000000000000000000000000008152600401610b95906119dd565b60405180910390fd5b610ba781610bb2565b50565b600033905090565b60008060009054906101000a900473ffffffffffffffffffffffffffffffffffffffff169050816000806101000a81548173ffffffffffffffffffffffffffffffffffffffff021916908373ffffffffffffffffffffffffffffffffffffffff1602179055508173ffffffffffffffffffffffffffffffffffffffff168173ffffffffffffffffffffffffffffffffffffffff167f8be0079c531659141344cd1fd0a4f28419497f9722a3daafe3b4186f6b6457e060405160405180910390a35050565b610c7e610dbc565b6000808451905060005b81811015610d195784600001517cffffffffffffffffffffffffffffffffffffffffffffffffffffffffff1916868281518110610cc857610cc7611756565b5b6020026020010151600001517cffffffffffffffffffffffffffffffffffffffffffffffffffffffffff191603610d06578481935093505050610d2f565b8080610d11906117be565b915050610c88565b508360018651610d2991906119fd565b92509250505b9250929050565b828054610d42906116a8565b90600052602060002090601f016020900481019282610d645760008555610dab565b82601f10610d7d57805160ff1916838001178555610dab565b82800160010185558215610dab579182015b82811115610daa578251825591602001919060010190610d8f565b5b509050610db89190610df9565b5090565b604051806040016040528060007cffffffffffffffffffffffffffffffffffffffffffffffffffffffffff19168152602001600080191681525090565b5b80821115610e12576000816000905550600101610dfa565b5090565b6000604051905090565b600080fd5b600080fd5b600073ffffffffffffffffffffffffffffffffffffffff82169050919050565b6000610e5582610e2a565b9050919050565b610e6581610e4a565b8114610e7057600080fd5b50565b600081359050610e8281610e5c565b92915050565b600060208284031215610e9e57610e9d610e20565b5b6000610eac84828501610e73565b91505092915050565b600081519050919050565b600082825260208201905092915050565b6000819050602082019050919050565b600081519050919050565b600082825260208201905092915050565b60005b83811015610f1b578082015181840152602081019050610f00565b83811115610f2a576000848401525b50505050565b6000601f19601f8301169050919050565b6000610f4c82610ee1565b610f568185610eec565b9350610f66818560208601610efd565b610f6f81610f30565b840191505092915050565b6000610f868383610f41565b905092915050565b6000602082019050919050565b6000610fa682610eb5565b610fb08185610ec0565b935083602082028501610fc285610ed1565b8060005b85811015610ffe5784840389528151610fdf8582610f7a565b9450610fea83610f8e565b925060208a01995050600181019050610fc6565b50829750879550505050505092915050565b6000602082019050818103600083015261102a8184610f9b565b905092915050565b6000819050919050565b61104581611032565b811461105057600080fd5b50565b6000813590506110628161103c565b92915050565b60006020828403121561107e5761107d610e20565b5b600061108c84828501611053565b91505092915050565b61109e81611032565b82525050565b60006020820190506110b96000830184611095565b92915050565b600080fd5b7f4e487b7100000000000000000000000000000000000000000000000000000000600052604160045260246000fd5b6110fc82610f30565b810181811067ffffffffffffffff8211171561111b5761111a6110c4565b5b80604052505050565b600061112e610e16565b905061113a82826110f3565b919050565b600067ffffffffffffffff82111561115a576111596110c4565b5b602082029050602081019050919050565b600080fd5b600080fd5b600067ffffffffffffffff8211156111905761118f6110c4565b5b61119982610f30565b9050602081019050919050565b82818337600083830152505050565b60006111c86111c384611175565b611124565b9050828152602081018484840111156111e4576111e3611170565b5b6111ef8482856111a6565b509392505050565b600082601f83011261120c5761120b6110bf565b5b813561121c8482602086016111b5565b91505092915050565b60006112386112338461113f565b611124565b9050808382526020820190506020840283018581111561125b5761125a61116b565b5b835b818110156112a257803567ffffffffffffffff8111156112805761127f6110bf565b5b80860161128d89826111f7565b8552602085019450505060208101905061125d565b5050509392505050565b600082601f8301126112c1576112c06110bf565b5b81356112d1848260208601611225565b91505092915050565b6000602082840312156112f0576112ef610e20565b5b600082013567ffffffffffffffff81111561130e5761130d610e25565b5b61131a848285016112ac565b91505092915050565b61132c81610e4a565b82525050565b60006020820190506113476000830184611323565b92915050565b600067ffffffffffffffff821115611368576113676110c4565b5b602082029050602081019050919050565b600080fd5b60007fffffff000000000000000000000000000000000000000000000000000000000082169050919050565b6113b38161137e565b81146113be57600080fd5b50565b6000813590506113d0816113aa565b92915050565b6000608082840312156113ec576113eb611379565b5b6113f66080611124565b90506000611406848285016113c1565b600083015250602061141a848285016113c1565b602083015250604061142e84828501611053565b604083015250606061144284828501611053565b60608301525092915050565b600061146161145c8461134d565b611124565b905080838252602082019050608084028301858111156114845761148361116b565b5b835b818110156114ad578061149988826113d6565b845260208401935050608081019050611486565b5050509392505050565b600082601f8301126114cc576114cb6110bf565b5b81356114dc84826020860161144e565b91505092915050565b6000602082840312156114fb576114fa610e20565b5b600082013567ffffffffffffffff81111561151957611518610e25565b5b611525848285016114b7565b91505092915050565b60006020828403121561154457611543610e20565b5b6000611552848285016113c1565b91505092915050565b600081519050919050565b600082825260208201905092915050565b6000819050602082019050919050565b6115908161137e565b82525050565b61159f81611032565b82525050565b6040820160008201516115bb6000850182611587565b5060208201516115ce6020850182611596565b50505050565b60006115e083836115a5565b60408301905092915050565b6000602082019050919050565b60006116048261155b565b61160e8185611566565b935061161983611577565b8060005b8381101561164a57815161163188826115d4565b975061163c836115ec565b92505060018101905061161d565b5085935050505092915050565b6000602082019050818103600083015261167181846115f9565b905092915050565b7f4e487b7100000000000000000000000000000000000000000000000000000000600052602260045260246000fd5b600060028204905060018216806116c057607f821691505b6020821081036116d3576116d2611679565b5b50919050565b600082825260208201905092915050565b7f4f776e61626c653a2063616c6c6572206973206e6f7420746865206f776e6572600082015250565b60006117206020836116d9565b915061172b826116ea565b602082019050919050565b6000602082019050818103600083015261174f81611713565b9050919050565b7f4e487b7100000000000000000000000000000000000000000000000000000000600052603260045260246000fd5b7f4e487b7100000000000000000000000000000000000000000000000000000000600052601160045260246000fd5b6000819050919050565b60006117c9826117b4565b91507fffffffffffffffffffffffffffffffffffffffffffffffffffffffffffffffff82036117fb576117fa611785565b5b600182019050919050565b61180f816117b4565b82525050565b600060408201905061182a6000830185611806565b818103602083015261183c8184610f9b565b90509392505050565b600081519050919050565b600082825260208201905092915050565b6000819050602082019050919050565b6080820160008201516118876000850182611587565b50602082015161189a6020850182611587565b5060408201516118ad6040850182611596565b5060608201516118c06060850182611596565b50505050565b60006118d28383611871565b60808301905092915050565b6000602082019050919050565b60006118f682611845565b6119008185611850565b935061190b83611861565b8060005b8381101561193c57815161192388826118c6565b975061192e836118de565b92505060018101905061190f565b5085935050505092915050565b6000602082019050818103600083015261196381846118eb565b905092915050565b7f4f776e61626c653a206e6577206f776e657220697320746865207a65726f206160008201527f6464726573730000000000000000000000000000000000000000000000000000602082015250565b60006119c76026836116d9565b91506119d28261196b565b604082019050919050565b600060208201905081810360008301526119f6816119ba565b9050919050565b6000611a08826117b4565b9150611a13836117b4565b9250827fffffffffffffffffffffffffffffffffffffffffffffffffffffffffffffffff03821115611a4857611a47611785565b5b82820190509291505056fea2646970667358221220ca795685b72451e016907e4876e6494acbdf3e7198603f4eb686b90fa457986b64736f6c634300080d0033",
  "immutableReferences": {},
  "source": "// SPDX-License-Identifier: GPL-3.0\r\npragma solidity >=0.7.0 <0.9.0;\r\nimport \"@openzeppelin/contracts/access/Ownable.sol\";\r\n\r\ncontract accessAuth is Ownable(){\r\n\r\n    \r\n    struct updateData{\r\n        bytes3 from;\r\n        bytes3 to;\r\n        bytes32 token;\r\n        bytes32 label;\r\n    }\r\n\r\n    struct node{\r\n        bytes3 id;\r\n        bytes32 token;\r\n    }\r\n\r\n    mapping(bytes3 => node[]) catalogue;\r\n    mapping(address => string[]) capabilityList;\r\n    mapping(bytes32 => bytes32) labels;\r\n\r\n    event CapabilityListUpdated(\r\n        address indexed _buyer,\r\n        uint price,\r\n        string[] BoughtResources\r\n    );\r\n\r\n    event UpdateData(updateData[]);\r\n\r\n\r\n    /** \r\n       @notice Updates a user's capability list (after a payment) adding the new purchased resources to the list. The ETH tokens are directly transfered to the owner of the contract. The capability list is a list of strings where a string identifies a resource\r\n       @param _resources List of strings\r\n    */\r\n    function buyResources(string[] memory _resources) external payable {\r\n        //string[] memory oldCap = capabilityList[msg.sender];\r\n        uint arrayLen = _resources.length;\r\n        for(uint i=0; i < arrayLen; i++){\r\n            capabilityList[msg.sender].push(_resources[i]); \r\n        }\r\n        \r\n        payable(owner()).transfer(msg.value);\r\n\r\n        emit CapabilityListUpdated(msg.sender, msg.value,_resources);\r\n    }\r\n\r\n\r\n    /**\r\n        @notice Thanks to the changes in the local KDS the catalog is updated allowing a buyer to access the recources according to his capability list. It also adds the labels for the key derivation.\r\n        @param _updateData List of tuple of the form: (from,to,token,label)\r\n     */\r\n    function updateCatalogue(updateData[] memory _updateData) onlyOwner() external{\r\n        node memory tempNode;\r\n        uint idx;\r\n        uint arrayLen = _updateData.length;\r\n        node[] memory tempCatalogue;\r\n\r\n        for(uint i=0; i < arrayLen; i++){\r\n            bytes3 from = _updateData[i].from;\r\n            bytes3 to = _updateData[i].to;\r\n            tempCatalogue = catalogue[from];\r\n\r\n            tempNode.id = to;\r\n            tempNode.token = _updateData[i].token;\r\n            (tempNode,idx) = _updateElementsInNode(tempCatalogue,tempNode);\r\n\r\n            if(idx > tempCatalogue.length){\r\n                catalogue[from].push(tempNode);\r\n            }else{\r\n                catalogue[from][idx] = tempNode;\r\n            }\r\n\r\n            \r\n            labels[to] = _updateData[i].label;\r\n            \r\n            \r\n        }\r\n\r\n        emit UpdateData(_updateData);\r\n    }\r\n\r\n    /**\r\n        @notice A node can have a bunch of nodes connected to it. This function tries to find if a new node (_data) is already connected and then the value is changed, otherwise it must be pushed as a new node.\r\n        @param _node List of nodes connected to a parent node. For example the node \"abc\" may be connected to the nodes \"a,b,c\"\r\n        @param _data Data of a node that needs to be changed or added\r\n        @return A tuple with the node and the position index \r\n    */\r\n    function _updateElementsInNode(node[] memory _node,node memory _data) private pure returns(node memory,uint){\r\n        uint len = _node.length;\r\n        for(uint i=0; i < len; i++){\r\n            if(_node[i].id == _data.id){\r\n                //_node[i].token = _data.token;\r\n                return (_data,i);\r\n            }\r\n        }\r\n\r\n        return (_data,_node.length+1);\r\n    }\r\n\r\n    function getCapabilityListByAddress(address _buyer) external view returns(string[] memory) {\r\n        return capabilityList[_buyer];\r\n    }\r\n\r\n    function getTokens(bytes3 _from) external view returns(node[] memory){\r\n        return catalogue[_from];\r\n    }\r\n\r\n    function getLabel(bytes32 _edge) external view returns(bytes32){\r\n        return labels[_edge];\r\n    }\r\n\r\n\r\n}",
  "sourcePath": "D:\\Users\\richi\\Desktop\\DataMarketplace\\smart-contract\\contracts\\accessAuth.sol",
  "compiler": {
    "name": "solc",
    "version": "0.8.13+commit.abaa5c0e.Emscripten.clang"
  },
  "schemaVersion": "3.4.7",
  "updatedAt": "2022-05-23T12:22:47.006Z",
  "devdoc": {
    "kind": "dev",
    "methods": {
      "buyResources(string[])": {
        "params": {
          "_resources": "List of strings"
        }
      },
      "owner()": {
        "details": "Returns the address of the current owner."
      },
      "renounceOwnership()": {
        "details": "Leaves the contract without owner. It will not be possible to call `onlyOwner` functions anymore. Can only be called by the current owner. NOTE: Renouncing ownership will leave the contract without an owner, thereby removing any functionality that is only available to the owner."
      },
      "transferOwnership(address)": {
        "details": "Transfers ownership of the contract to a new account (`newOwner`). Can only be called by the current owner."
      },
      "updateCatalogue((bytes3,bytes3,bytes32,bytes32)[])": {
        "params": {
          "_updateData": "List of tuple of the form: (from,to,token,label)"
        }
      }
    },
    "version": 1
  },
  "userdoc": {
    "kind": "user",
    "methods": {
      "buyResources(string[])": {
        "notice": "Updates a user's capability list (after a payment) adding the new purchased resources to the list. The ETH tokens are directly transfered to the owner of the contract. The capability list is a list of strings where a string identifies a resource"
      },
      "updateCatalogue((bytes3,bytes3,bytes32,bytes32)[])": {
        "notice": "Thanks to the changes in the local KDS the catalog is updated allowing a buyer to access the recources according to his capability list. It also adds the labels for the key derivation."
      }
    },
    "version": 1
  }
}