{
  "contractName": "accessAuth",
  "abi": [
    {
      "anonymous": false,
      "inputs": [
        {
          "components": [
            {
              "internalType": "string",
              "name": "from",
              "type": "string"
            },
            {
              "internalType": "string",
              "name": "to",
              "type": "string"
            },
            {
              "internalType": "bytes32",
              "name": "token",
              "type": "bytes32"
            }
          ],
          "indexed": false,
          "internalType": "struct accessAuth.catalogueEntry[]",
          "name": "_resources",
          "type": "tuple[]"
        }
      ],
      "name": "CatalogueUpdated",
      "type": "event"
    },
    {
      "anonymous": false,
      "inputs": [
        {
          "indexed": true,
          "internalType": "address",
          "name": "previousOwner",
          "type": "address"
        },
        {
          "indexed": true,
          "internalType": "address",
          "name": "newOwner",
          "type": "address"
        }
      ],
      "name": "OwnershipTransferred",
      "type": "event"
    },
    {
      "anonymous": false,
      "inputs": [
        {
          "indexed": true,
          "internalType": "address",
          "name": "_buyer",
          "type": "address"
        },
        {
          "indexed": false,
          "internalType": "uint256",
          "name": "price",
          "type": "uint256"
        },
        {
          "indexed": false,
          "internalType": "uint256[]",
          "name": "oldCababilityList",
          "type": "uint256[]"
        },
        {
          "indexed": false,
          "internalType": "uint256[]",
          "name": "newCapabilityList",
          "type": "uint256[]"
        }
      ],
      "name": "capabilityListUpdated",
      "type": "event"
    },
    {
      "inputs": [],
      "name": "owner",
      "outputs": [
        {
          "internalType": "address",
          "name": "",
          "type": "address"
        }
      ],
      "stateMutability": "view",
      "type": "function",
      "constant": true
    },
    {
      "inputs": [],
      "name": "renounceOwnership",
      "outputs": [],
      "stateMutability": "nonpayable",
      "type": "function"
    },
    {
      "inputs": [
        {
          "internalType": "address",
          "name": "newOwner",
          "type": "address"
        }
      ],
      "name": "transferOwnership",
      "outputs": [],
      "stateMutability": "nonpayable",
      "type": "function"
    },
    {
      "inputs": [
        {
          "internalType": "uint256[]",
          "name": "_resources",
          "type": "uint256[]"
        }
      ],
      "name": "buyResources",
      "outputs": [],
      "stateMutability": "payable",
      "type": "function",
      "payable": true
    },
    {
      "inputs": [
        {
          "components": [
            {
              "internalType": "string",
              "name": "from",
              "type": "string"
            },
            {
              "internalType": "string",
              "name": "to",
              "type": "string"
            },
            {
              "internalType": "bytes32",
              "name": "token",
              "type": "bytes32"
            }
          ],
          "internalType": "struct accessAuth.catalogueEntry[]",
          "name": "_catalogueEntries",
          "type": "tuple[]"
        }
      ],
      "name": "updateCatalogue",
      "outputs": [],
      "stateMutability": "nonpayable",
      "type": "function"
    },
    {
      "inputs": [
        {
          "internalType": "address",
          "name": "_buyer",
          "type": "address"
        }
      ],
      "name": "getCapabilityListByAddress",
      "outputs": [
        {
          "internalType": "uint256[]",
          "name": "",
          "type": "uint256[]"
        }
      ],
      "stateMutability": "view",
      "type": "function",
      "constant": true
    },
    {
      "inputs": [
        {
          "internalType": "string",
          "name": "_from",
          "type": "string"
        },
        {
          "internalType": "string",
          "name": "_to",
          "type": "string"
        }
      ],
      "name": "getToken",
      "outputs": [
        {
          "internalType": "bytes32",
          "name": "",
          "type": "bytes32"
        }
      ],
      "stateMutability": "view",
      "type": "function",
      "constant": true
    }
  ],
  "bytecode": "0x608060405234801561001057600080fd5b5061002d61002261003260201b60201c565b61003a60201b60201c565b6100fe565b600033905090565b60008060009054906101000a900473ffffffffffffffffffffffffffffffffffffffff169050816000806101000a81548173ffffffffffffffffffffffffffffffffffffffff021916908373ffffffffffffffffffffffffffffffffffffffff1602179055508173ffffffffffffffffffffffffffffffffffffffff168173ffffffffffffffffffffffffffffffffffffffff167f8be0079c531659141344cd1fd0a4f28419497f9722a3daafe3b4186f6b6457e060405160405180910390a35050565b61150d8061010d6000396000f3fe6080604052600436106100705760003560e01c80638da5cb5b1161004e5780638da5cb5b146100f25780639ceb87991461011d578063ce5539d214610139578063f2fde38b1461017657610070565b806306e537091461007557806310610349146100b2578063715018a6146100db575b600080fd5b34801561008157600080fd5b5061009c60048036038101906100979190610967565b61019f565b6040516100a99190610a5c565b60405180910390f35b3480156100be57600080fd5b506100d960048036038101906100d49190610d86565b610236565b005b3480156100e757600080fd5b506100f06103e7565b005b3480156100fe57600080fd5b5061010761046f565b6040516101149190610dde565b60405180910390f35b61013760048036038101906101329190610ee8565b610498565b005b34801561014557600080fd5b50610160600480360381019061015b9190610f31565b6106ac565b60405161016d9190610fb8565b60405180910390f35b34801561018257600080fd5b5061019d60048036038101906101989190610967565b610732565b005b6060600260008373ffffffffffffffffffffffffffffffffffffffff1673ffffffffffffffffffffffffffffffffffffffff16815260200190815260200160002080548060200260200160405190810160405280929190818152602001828054801561022a57602002820191906000526020600020905b815481526020019060010190808311610216575b50505050509050919050565b61023e610829565b73ffffffffffffffffffffffffffffffffffffffff1661025c61046f565b73ffffffffffffffffffffffffffffffffffffffff16146102b2576040517f08c379a00000000000000000000000000000000000000000000000000000000081526004016102a990611030565b60405180910390fd5b60005b81518110156103ac5760008282815181106102d3576102d2611050565b5b6020026020010151600001516040516020016102ef91906110f9565b604051602081830303815290604052805190602001209050600083838151811061031c5761031b611050565b5b60200260200101516020015160405160200161033891906110f9565b60405160208183030381529060405280519060200120905083838151811061036357610362611050565b5b60200260200101516040015160016000848152602001908152602001600020600083815260200190815260200160002081905550505080806103a49061113f565b9150506102b5565b507fbfd335c856109df92d33bccc4da109730e24680ab6638f449464073216ba9059816040516103dc91906112f9565b60405180910390a150565b6103ef610829565b73ffffffffffffffffffffffffffffffffffffffff1661040d61046f565b73ffffffffffffffffffffffffffffffffffffffff1614610463576040517f08c379a000000000000000000000000000000000000000000000000000000000815260040161045a90611030565b60405180910390fd5b61046d6000610831565b565b60008060009054906101000a900473ffffffffffffffffffffffffffffffffffffffff16905090565b6000600260003373ffffffffffffffffffffffffffffffffffffffff1673ffffffffffffffffffffffffffffffffffffffff16815260200190815260200160002080548060200260200160405190810160405280929190818152602001828054801561052357602002820191906000526020600020905b81548152602001906001019080831161050f575b5050505050905060005b82518110156105c957600260003373ffffffffffffffffffffffffffffffffffffffff1673ffffffffffffffffffffffffffffffffffffffff16815260200190815260200160002083828151811061058857610587611050565b5b6020026020010151908060018154018082558091505060019003906000526020600020016000909190919091505580806105c19061113f565b91505061052d565b506105d261046f565b73ffffffffffffffffffffffffffffffffffffffff166108fc349081150290604051600060405180830381858888f19350505050158015610617573d6000803e3d6000fd5b503373ffffffffffffffffffffffffffffffffffffffff167f5ba619da677e42358704a0f907e37564b0ba14d2dd898c16a0d380cecdea8bc63483600260003373ffffffffffffffffffffffffffffffffffffffff1673ffffffffffffffffffffffffffffffffffffffff1681526020019081526020016000206040516106a093929190611400565b60405180910390a25050565b600080836040516020016106c091906110f9565b6040516020818303038152906040528051906020012090506000836040516020016106eb91906110f9565b604051602081830303815290604052805190602001209050600160008381526020019081526020016000206000828152602001908152602001600020549250505092915050565b61073a610829565b73ffffffffffffffffffffffffffffffffffffffff1661075861046f565b73ffffffffffffffffffffffffffffffffffffffff16146107ae576040517f08c379a00000000000000000000000000000000000000000000000000000000081526004016107a590611030565b60405180910390fd5b600073ffffffffffffffffffffffffffffffffffffffff168173ffffffffffffffffffffffffffffffffffffffff160361081d576040517f08c379a0000000000000000000000000000000000000000000000000000000008152600401610814906114b7565b60405180910390fd5b61082681610831565b50565b600033905090565b60008060009054906101000a900473ffffffffffffffffffffffffffffffffffffffff169050816000806101000a81548173ffffffffffffffffffffffffffffffffffffffff021916908373ffffffffffffffffffffffffffffffffffffffff1602179055508173ffffffffffffffffffffffffffffffffffffffff168173ffffffffffffffffffffffffffffffffffffffff167f8be0079c531659141344cd1fd0a4f28419497f9722a3daafe3b4186f6b6457e060405160405180910390a35050565b6000604051905090565b600080fd5b600080fd5b600073ffffffffffffffffffffffffffffffffffffffff82169050919050565b600061093482610909565b9050919050565b61094481610929565b811461094f57600080fd5b50565b6000813590506109618161093b565b92915050565b60006020828403121561097d5761097c6108ff565b5b600061098b84828501610952565b91505092915050565b600081519050919050565b600082825260208201905092915050565b6000819050602082019050919050565b6000819050919050565b6109d3816109c0565b82525050565b60006109e583836109ca565b60208301905092915050565b6000602082019050919050565b6000610a0982610994565b610a13818561099f565b9350610a1e836109b0565b8060005b83811015610a4f578151610a3688826109d9565b9750610a41836109f1565b925050600181019050610a22565b5085935050505092915050565b60006020820190508181036000830152610a7681846109fe565b905092915050565b600080fd5b6000601f19601f8301169050919050565b7f4e487b7100000000000000000000000000000000000000000000000000000000600052604160045260246000fd5b610acc82610a83565b810181811067ffffffffffffffff82111715610aeb57610aea610a94565b5b80604052505050565b6000610afe6108f5565b9050610b0a8282610ac3565b919050565b600067ffffffffffffffff821115610b2a57610b29610a94565b5b602082029050602081019050919050565b600080fd5b600080fd5b600080fd5b600080fd5b600067ffffffffffffffff821115610b6a57610b69610a94565b5b610b7382610a83565b9050602081019050919050565b82818337600083830152505050565b6000610ba2610b9d84610b4f565b610af4565b905082815260208101848484011115610bbe57610bbd610b4a565b5b610bc9848285610b80565b509392505050565b600082601f830112610be657610be5610a7e565b5b8135610bf6848260208601610b8f565b91505092915050565b6000819050919050565b610c1281610bff565b8114610c1d57600080fd5b50565b600081359050610c2f81610c09565b92915050565b600060608284031215610c4b57610c4a610b40565b5b610c556060610af4565b9050600082013567ffffffffffffffff811115610c7557610c74610b45565b5b610c8184828501610bd1565b600083015250602082013567ffffffffffffffff811115610ca557610ca4610b45565b5b610cb184828501610bd1565b6020830152506040610cc584828501610c20565b60408301525092915050565b6000610ce4610cdf84610b0f565b610af4565b90508083825260208201905060208402830185811115610d0757610d06610b3b565b5b835b81811015610d4e57803567ffffffffffffffff811115610d2c57610d2b610a7e565b5b808601610d398982610c35565b85526020850194505050602081019050610d09565b5050509392505050565b600082601f830112610d6d57610d6c610a7e565b5b8135610d7d848260208601610cd1565b91505092915050565b600060208284031215610d9c57610d9b6108ff565b5b600082013567ffffffffffffffff811115610dba57610db9610904565b5b610dc684828501610d58565b91505092915050565b610dd881610929565b82525050565b6000602082019050610df36000830184610dcf565b92915050565b600067ffffffffffffffff821115610e1457610e13610a94565b5b602082029050602081019050919050565b610e2e816109c0565b8114610e3957600080fd5b50565b600081359050610e4b81610e25565b92915050565b6000610e64610e5f84610df9565b610af4565b90508083825260208201905060208402830185811115610e8757610e86610b3b565b5b835b81811015610eb05780610e9c8882610e3c565b845260208401935050602081019050610e89565b5050509392505050565b600082601f830112610ecf57610ece610a7e565b5b8135610edf848260208601610e51565b91505092915050565b600060208284031215610efe57610efd6108ff565b5b600082013567ffffffffffffffff811115610f1c57610f1b610904565b5b610f2884828501610eba565b91505092915050565b60008060408385031215610f4857610f476108ff565b5b600083013567ffffffffffffffff811115610f6657610f65610904565b5b610f7285828601610bd1565b925050602083013567ffffffffffffffff811115610f9357610f92610904565b5b610f9f85828601610bd1565b9150509250929050565b610fb281610bff565b82525050565b6000602082019050610fcd6000830184610fa9565b92915050565b600082825260208201905092915050565b7f4f776e61626c653a2063616c6c6572206973206e6f7420746865206f776e6572600082015250565b600061101a602083610fd3565b915061102582610fe4565b602082019050919050565b600060208201905081810360008301526110498161100d565b9050919050565b7f4e487b7100000000000000000000000000000000000000000000000000000000600052603260045260246000fd5b600081519050919050565b600081905092915050565b60005b838110156110b3578082015181840152602081019050611098565b838111156110c2576000848401525b50505050565b60006110d38261107f565b6110dd818561108a565b93506110ed818560208601611095565b80840191505092915050565b600061110582846110c8565b915081905092915050565b7f4e487b7100000000000000000000000000000000000000000000000000000000600052601160045260246000fd5b600061114a826109c0565b91507fffffffffffffffffffffffffffffffffffffffffffffffffffffffffffffffff820361117c5761117b611110565b5b600182019050919050565b600081519050919050565b600082825260208201905092915050565b6000819050602082019050919050565b600082825260208201905092915050565b60006111cf8261107f565b6111d981856111b3565b93506111e9818560208601611095565b6111f281610a83565b840191505092915050565b61120681610bff565b82525050565b6000606083016000830151848203600086015261122982826111c4565b9150506020830151848203602086015261124382826111c4565b915050604083015161125860408601826111fd565b508091505092915050565b600061126f838361120c565b905092915050565b6000602082019050919050565b600061128f82611187565b6112998185611192565b9350836020820285016112ab856111a3565b8060005b858110156112e757848403895281516112c88582611263565b94506112d383611277565b925060208a019950506001810190506112af565b50829750879550505050505092915050565b600060208201905081810360008301526113138184611284565b905092915050565b611324816109c0565b82525050565b600081549050919050565b60008190508160005260206000209050919050565b60008160001c9050919050565b6000819050919050565b600061137461136f8361134a565b611357565b9050919050565b60006113878254611361565b9050919050565b6000600182019050919050565b60006113a68261132a565b6113b0818561099f565b93506113bb83611335565b8060005b838110156113f3576113d08261137b565b6113da88826109d9565b97506113e58361138e565b9250506001810190506113bf565b5085935050505092915050565b6000606082019050611415600083018661131b565b818103602083015261142781856109fe565b9050818103604083015261143b818461139b565b9050949350505050565b7f4f776e61626c653a206e6577206f776e657220697320746865207a65726f206160008201527f6464726573730000000000000000000000000000000000000000000000000000602082015250565b60006114a1602683610fd3565b91506114ac82611445565b604082019050919050565b600060208201905081810360008301526114d081611494565b905091905056fea2646970667358221220b1f1eabf17f85164d5922dc2e0950369621d1e1986ac59f2dfd280908dc7267464736f6c634300080d0033",
  "immutableReferences": {},
  "source": "// SPDX-License-Identifier: GPL-3.0\r\npragma solidity >=0.7.0 <0.9.0;\r\nimport \"@openzeppelin/contracts/access/Ownable.sol\";\r\n\r\ncontract accessAuth is Ownable(){\r\n\r\n    struct catalogueEntry{\r\n        string from;\r\n        string to;\r\n        bytes32 token;\r\n    }\r\n\r\n    mapping(bytes32 => mapping(bytes32 => bytes32)) catalogue;\r\n    mapping(address => uint[]) capabilityList;\r\n\r\n    event capabilityListUpdated(\r\n        address indexed _buyer,\r\n        uint price,\r\n        uint[] oldCababilityList,\r\n        uint[] newCapabilityList\r\n    );\r\n    event CatalogueUpdated(catalogueEntry[] _resources);\r\n\r\n\r\n    function buyResources(uint[] memory _resources) external payable {\r\n        uint[] memory oldCap = capabilityList[msg.sender];\r\n\r\n        for(uint i=0; i < _resources.length; i++){\r\n            capabilityList[msg.sender].push(_resources[i]); \r\n        }\r\n        \r\n        payable(owner()).transfer(msg.value);\r\n\r\n        emit capabilityListUpdated(msg.sender, msg.value, oldCap,capabilityList[msg.sender]);\r\n    }\r\n\r\n    function updateCatalogue(catalogueEntry[] memory _catalogueEntries) onlyOwner() external{\r\n\r\n        for(uint i=0; i < _catalogueEntries.length; i++){\r\n            bytes32 from = keccak256(abi.encodePacked(_catalogueEntries[i].from));\r\n            bytes32 to = keccak256(abi.encodePacked(_catalogueEntries[i].to));\r\n            catalogue[from][to] = _catalogueEntries[i].token;\r\n        }\r\n\r\n        emit CatalogueUpdated(_catalogueEntries);\r\n    }\r\n\r\n    function getCapabilityListByAddress(address _buyer) external view returns(uint[] memory) {\r\n        return capabilityList[_buyer];\r\n    }\r\n\r\n    function getToken(string memory _from, string memory _to) external view returns(bytes32){\r\n        bytes32 from = keccak256(abi.encodePacked(_from));\r\n        bytes32 to = keccak256(abi.encodePacked(_to));\r\n\r\n        return catalogue[from][to];\r\n    }\r\n\r\n\r\n}",
  "sourcePath": "D:\\Users\\richi\\Desktop\\DataMarketplace\\smart-contract\\contracts\\accessAuth.sol",
  "compiler": {
    "name": "solc",
    "version": "0.8.13+commit.abaa5c0e.Emscripten.clang"
  },
  "schemaVersion": "3.4.7",
  "updatedAt": "2022-04-20T16:03:52.318Z",
  "networkType": "ethereum",
  "devdoc": {
    "kind": "dev",
    "methods": {
      "owner()": {
        "details": "Returns the address of the current owner."
      },
      "renounceOwnership()": {
        "details": "Leaves the contract without owner. It will not be possible to call `onlyOwner` functions anymore. Can only be called by the current owner. NOTE: Renouncing ownership will leave the contract without an owner, thereby removing any functionality that is only available to the owner."
      },
      "transferOwnership(address)": {
        "details": "Transfers ownership of the contract to a new account (`newOwner`). Can only be called by the current owner."
      }
    },
    "version": 1
  },
  "userdoc": {
    "kind": "user",
    "methods": {},
    "version": 1
  }
}