{
  "contractName": "accessAuth",
  "abi": [
    {
      "anonymous": false,
      "inputs": [
        {
          "indexed": true,
          "internalType": "address",
          "name": "_buyer",
          "type": "address"
        },
        {
          "indexed": false,
          "internalType": "uint256",
          "name": "price",
          "type": "uint256"
        },
        {
          "indexed": false,
          "internalType": "string[]",
          "name": "oldCababilityList",
          "type": "string[]"
        },
        {
          "indexed": false,
          "internalType": "string[]",
          "name": "newCapabilityList",
          "type": "string[]"
        }
      ],
      "name": "CapabilityListUpdated",
      "type": "event"
    },
    {
      "anonymous": false,
      "inputs": [
        {
          "indexed": true,
          "internalType": "address",
          "name": "previousOwner",
          "type": "address"
        },
        {
          "indexed": true,
          "internalType": "address",
          "name": "newOwner",
          "type": "address"
        }
      ],
      "name": "OwnershipTransferred",
      "type": "event"
    },
    {
      "anonymous": false,
      "inputs": [
        {
          "components": [
            {
              "internalType": "bytes32",
              "name": "from",
              "type": "bytes32"
            },
            {
              "internalType": "bytes32",
              "name": "to",
              "type": "bytes32"
            },
            {
              "internalType": "bytes32",
              "name": "token",
              "type": "bytes32"
            },
            {
              "internalType": "bytes32",
              "name": "label",
              "type": "bytes32"
            }
          ],
          "indexed": false,
          "internalType": "struct accessAuth.updateData[]",
          "name": "",
          "type": "tuple[]"
        }
      ],
      "name": "UpdateData",
      "type": "event"
    },
    {
      "inputs": [],
      "name": "owner",
      "outputs": [
        {
          "internalType": "address",
          "name": "",
          "type": "address"
        }
      ],
      "stateMutability": "view",
      "type": "function"
    },
    {
      "inputs": [],
      "name": "renounceOwnership",
      "outputs": [],
      "stateMutability": "nonpayable",
      "type": "function"
    },
    {
      "inputs": [
        {
          "internalType": "address",
          "name": "newOwner",
          "type": "address"
        }
      ],
      "name": "transferOwnership",
      "outputs": [],
      "stateMutability": "nonpayable",
      "type": "function"
    },
    {
      "inputs": [
        {
          "internalType": "string[]",
          "name": "_resources",
          "type": "string[]"
        }
      ],
      "name": "buyResources",
      "outputs": [],
      "stateMutability": "payable",
      "type": "function"
    },
    {
      "inputs": [
        {
          "components": [
            {
              "internalType": "bytes32",
              "name": "from",
              "type": "bytes32"
            },
            {
              "internalType": "bytes32",
              "name": "to",
              "type": "bytes32"
            },
            {
              "internalType": "bytes32",
              "name": "token",
              "type": "bytes32"
            },
            {
              "internalType": "bytes32",
              "name": "label",
              "type": "bytes32"
            }
          ],
          "internalType": "struct accessAuth.updateData[]",
          "name": "_updateData",
          "type": "tuple[]"
        }
      ],
      "name": "updateCatalogue",
      "outputs": [],
      "stateMutability": "nonpayable",
      "type": "function"
    },
    {
      "inputs": [
        {
          "components": [
            {
              "internalType": "bytes32",
              "name": "id",
              "type": "bytes32"
            },
            {
              "internalType": "bytes32",
              "name": "token",
              "type": "bytes32"
            }
          ],
          "internalType": "struct accessAuth.node[]",
          "name": "_node",
          "type": "tuple[]"
        },
        {
          "components": [
            {
              "internalType": "bytes32",
              "name": "id",
              "type": "bytes32"
            },
            {
              "internalType": "bytes32",
              "name": "token",
              "type": "bytes32"
            }
          ],
          "internalType": "struct accessAuth.node",
          "name": "_data",
          "type": "tuple"
        }
      ],
      "name": "_updateElementsInNode",
      "outputs": [
        {
          "components": [
            {
              "internalType": "bytes32",
              "name": "id",
              "type": "bytes32"
            },
            {
              "internalType": "bytes32",
              "name": "token",
              "type": "bytes32"
            }
          ],
          "internalType": "struct accessAuth.node",
          "name": "",
          "type": "tuple"
        },
        {
          "internalType": "uint256",
          "name": "",
          "type": "uint256"
        }
      ],
      "stateMutability": "pure",
      "type": "function"
    },
    {
      "inputs": [
        {
          "internalType": "address",
          "name": "_buyer",
          "type": "address"
        }
      ],
      "name": "getCapabilityListByAddress",
      "outputs": [
        {
          "internalType": "string[]",
          "name": "",
          "type": "string[]"
        }
      ],
      "stateMutability": "view",
      "type": "function"
    },
    {
      "inputs": [
        {
          "internalType": "bytes32",
          "name": "_from",
          "type": "bytes32"
        }
      ],
      "name": "getTokens",
      "outputs": [
        {
          "components": [
            {
              "internalType": "bytes32",
              "name": "id",
              "type": "bytes32"
            },
            {
              "internalType": "bytes32",
              "name": "token",
              "type": "bytes32"
            }
          ],
          "internalType": "struct accessAuth.node[]",
          "name": "",
          "type": "tuple[]"
        }
      ],
      "stateMutability": "view",
      "type": "function"
    },
    {
      "inputs": [
        {
          "internalType": "bytes32",
          "name": "_edge",
          "type": "bytes32"
        }
      ],
      "name": "getLabel",
      "outputs": [
        {
          "internalType": "bytes32",
          "name": "",
          "type": "bytes32"
        }
      ],
      "stateMutability": "view",
      "type": "function"
    }
  ],
  "bytecode": "0x608060405234801561001057600080fd5b5061002d61002261003260201b60201c565b61003a60201b60201c565b6100fe565b600033905090565b60008060009054906101000a900473ffffffffffffffffffffffffffffffffffffffff169050816000806101000a81548173ffffffffffffffffffffffffffffffffffffffff021916908373ffffffffffffffffffffffffffffffffffffffff1602179055508173ffffffffffffffffffffffffffffffffffffffff168173ffffffffffffffffffffffffffffffffffffffff167f8be0079c531659141344cd1fd0a4f28419497f9722a3daafe3b4186f6b6457e060405160405180910390a35050565b611c598061010d6000396000f3fe6080604052600436106100865760003560e01c80638da5cb5b116100595780638da5cb5b14610138578063b6f02cfd14610163578063c8a7770f146101a1578063ecbbc033146101ca578063f2fde38b1461020757610086565b806306e537091461008b5780635330c1b5146100c8578063715018a6146101055780637c52f1b51461011c575b600080fd5b34801561009757600080fd5b506100b260048036038101906100ad9190610dc6565b610230565b6040516100bf9190610f4e565b60405180910390f35b3480156100d457600080fd5b506100ef60048036038101906100ea9190610fa6565b610348565b6040516100fc9190610fe2565b60405180910390f35b34801561011157600080fd5b5061011a610365565b005b61013660048036038101906101319190611218565b6103ed565b005b34801561014457600080fd5b5061014d610695565b60405161015a9190611270565b60405180910390f35b34801561016f57600080fd5b5061018a600480360381019061018591906113a3565b6106be565b604051610198929190611456565b60405180910390f35b3480156101ad57600080fd5b506101c860048036038101906101c391906115ba565b610763565b005b3480156101d657600080fd5b506101f160048036038101906101ec9190610fa6565b610a48565b6040516101fe91906116e1565b60405180910390f35b34801561021357600080fd5b5061022e60048036038101906102299190610dc6565b610ace565b005b6060600260008373ffffffffffffffffffffffffffffffffffffffff1673ffffffffffffffffffffffffffffffffffffffff168152602001908152602001600020805480602002602001604051908101604052809291908181526020016000905b8282101561033d5783829060005260206000200180546102b090611732565b80601f01602080910402602001604051908101604052809291908181526020018280546102dc90611732565b80156103295780601f106102fe57610100808354040283529160200191610329565b820191906000526020600020905b81548152906001019060200180831161030c57829003601f168201915b505050505081526020019060010190610291565b505050509050919050565b600060036000838152602001908152602001600020549050919050565b61036d610bc5565b73ffffffffffffffffffffffffffffffffffffffff1661038b610695565b73ffffffffffffffffffffffffffffffffffffffff16146103e1576040517f08c379a00000000000000000000000000000000000000000000000000000000081526004016103d8906117c0565b60405180910390fd5b6103eb6000610bcd565b565b6000600260003373ffffffffffffffffffffffffffffffffffffffff1673ffffffffffffffffffffffffffffffffffffffff168152602001908152602001600020805480602002602001604051908101604052809291908181526020016000905b828210156104fa57838290600052602060002001805461046d90611732565b80601f016020809104026020016040519081016040528092919081815260200182805461049990611732565b80156104e65780601f106104bb576101008083540402835291602001916104e6565b820191906000526020600020905b8154815290600101906020018083116104c957829003601f168201915b50505050508152602001906001019061044e565b50505050905060005b82518110156105b257600260003373ffffffffffffffffffffffffffffffffffffffff1673ffffffffffffffffffffffffffffffffffffffff16815260200190815260200160002083828151811061055e5761055d6117e0565b5b602002602001015190806001815401808255809150506001900390600052602060002001600090919091909150908051906020019061059e929190610c91565b5080806105aa9061183e565b915050610503565b506105bb610695565b73ffffffffffffffffffffffffffffffffffffffff166108fc349081150290604051600060405180830381858888f19350505050158015610600573d6000803e3d6000fd5b503373ffffffffffffffffffffffffffffffffffffffff167fe78be8b6292de04da63ebe9925fa4ba003409d21a198302644f31a037787269d3483600260003373ffffffffffffffffffffffffffffffffffffffff1673ffffffffffffffffffffffffffffffffffffffff168152602001908152602001600020604051610689939291906119d0565b60405180910390a25050565b60008060009054906101000a900473ffffffffffffffffffffffffffffffffffffffff16905090565b6106c6610d17565b600080600090505b84518110156107475783600001518582815181106106ef576106ee6117e0565b5b60200260200101516000015103610734578360200151858281518110610718576107176117e0565b5b602002602001015160200181815250508381925092505061075c565b808061073f9061183e565b9150506106ce565b5082600185516107579190611a15565b915091505b9250929050565b61076b610bc5565b73ffffffffffffffffffffffffffffffffffffffff16610789610695565b73ffffffffffffffffffffffffffffffffffffffff16146107df576040517f08c379a00000000000000000000000000000000000000000000000000000000081526004016107d6906117c0565b60405180910390fd5b6107e7610d17565b600080600090505b8351811015610a0b57600084828151811061080d5761080c6117e0565b5b602002602001015160000151905060008583815181106108305761082f6117e0565b5b60200260200101516020015190508085600001818152505085838151811061085b5761085a6117e0565b5b6020026020010151604001518560200181815250506108f660016000848152602001908152602001600020805480602002602001604051908101604052809291908181526020016000905b828210156108ec578382906000526020600020906002020160405180604001604052908160008201548152602001600182015481525050815260200190600101906108a6565b50505050866106be565b809550819650505060016000838152602001908152602001600020805490508411156109745760016000838152602001908152602001600020859080600181540180825580915050600190039060005260206000209060020201600090919091909150600082015181600001556020820151816001015550506109c0565b8460016000848152602001908152602001600020858154811061099a576109996117e0565b5b906000526020600020906002020160008201518160000155602082015181600101559050505b8583815181106109d3576109d26117e0565b5b602002602001015160600151600360008381526020019081526020016000208190555050508080610a039061183e565b9150506107ef565b507f7e52c3f5072d11d5bcff9d20c03c2e6d05c0a410e51ac0730b73a2057283554a83604051610a3b9190611b6f565b60405180910390a1505050565b606060016000838152602001908152602001600020805480602002602001604051908101604052809291908181526020016000905b82821015610ac357838290600052602060002090600202016040518060400160405290816000820154815260200160018201548152505081526020019060010190610a7d565b505050509050919050565b610ad6610bc5565b73ffffffffffffffffffffffffffffffffffffffff16610af4610695565b73ffffffffffffffffffffffffffffffffffffffff1614610b4a576040517f08c379a0000000000000000000000000000000000000000000000000000000008152600401610b41906117c0565b60405180910390fd5b600073ffffffffffffffffffffffffffffffffffffffff168173ffffffffffffffffffffffffffffffffffffffff1603610bb9576040517f08c379a0000000000000000000000000000000000000000000000000000000008152600401610bb090611c03565b60405180910390fd5b610bc281610bcd565b50565b600033905090565b60008060009054906101000a900473ffffffffffffffffffffffffffffffffffffffff169050816000806101000a81548173ffffffffffffffffffffffffffffffffffffffff021916908373ffffffffffffffffffffffffffffffffffffffff1602179055508173ffffffffffffffffffffffffffffffffffffffff168173ffffffffffffffffffffffffffffffffffffffff167f8be0079c531659141344cd1fd0a4f28419497f9722a3daafe3b4186f6b6457e060405160405180910390a35050565b828054610c9d90611732565b90600052602060002090601f016020900481019282610cbf5760008555610d06565b82601f10610cd857805160ff1916838001178555610d06565b82800160010185558215610d06579182015b82811115610d05578251825591602001919060010190610cea565b5b509050610d139190610d37565b5090565b604051806040016040528060008019168152602001600080191681525090565b5b80821115610d50576000816000905550600101610d38565b5090565b6000604051905090565b600080fd5b600080fd5b600073ffffffffffffffffffffffffffffffffffffffff82169050919050565b6000610d9382610d68565b9050919050565b610da381610d88565b8114610dae57600080fd5b50565b600081359050610dc081610d9a565b92915050565b600060208284031215610ddc57610ddb610d5e565b5b6000610dea84828501610db1565b91505092915050565b600081519050919050565b600082825260208201905092915050565b6000819050602082019050919050565b600081519050919050565b600082825260208201905092915050565b60005b83811015610e59578082015181840152602081019050610e3e565b83811115610e68576000848401525b50505050565b6000601f19601f8301169050919050565b6000610e8a82610e1f565b610e948185610e2a565b9350610ea4818560208601610e3b565b610ead81610e6e565b840191505092915050565b6000610ec48383610e7f565b905092915050565b6000602082019050919050565b6000610ee482610df3565b610eee8185610dfe565b935083602082028501610f0085610e0f565b8060005b85811015610f3c5784840389528151610f1d8582610eb8565b9450610f2883610ecc565b925060208a01995050600181019050610f04565b50829750879550505050505092915050565b60006020820190508181036000830152610f688184610ed9565b905092915050565b6000819050919050565b610f8381610f70565b8114610f8e57600080fd5b50565b600081359050610fa081610f7a565b92915050565b600060208284031215610fbc57610fbb610d5e565b5b6000610fca84828501610f91565b91505092915050565b610fdc81610f70565b82525050565b6000602082019050610ff76000830184610fd3565b92915050565b600080fd5b7f4e487b7100000000000000000000000000000000000000000000000000000000600052604160045260246000fd5b61103a82610e6e565b810181811067ffffffffffffffff8211171561105957611058611002565b5b80604052505050565b600061106c610d54565b90506110788282611031565b919050565b600067ffffffffffffffff82111561109857611097611002565b5b602082029050602081019050919050565b600080fd5b600080fd5b600067ffffffffffffffff8211156110ce576110cd611002565b5b6110d782610e6e565b9050602081019050919050565b82818337600083830152505050565b6000611106611101846110b3565b611062565b905082815260208101848484011115611122576111216110ae565b5b61112d8482856110e4565b509392505050565b600082601f83011261114a57611149610ffd565b5b813561115a8482602086016110f3565b91505092915050565b60006111766111718461107d565b611062565b90508083825260208201905060208402830185811115611199576111986110a9565b5b835b818110156111e057803567ffffffffffffffff8111156111be576111bd610ffd565b5b8086016111cb8982611135565b8552602085019450505060208101905061119b565b5050509392505050565b600082601f8301126111ff576111fe610ffd565b5b813561120f848260208601611163565b91505092915050565b60006020828403121561122e5761122d610d5e565b5b600082013567ffffffffffffffff81111561124c5761124b610d63565b5b611258848285016111ea565b91505092915050565b61126a81610d88565b82525050565b60006020820190506112856000830184611261565b92915050565b600067ffffffffffffffff8211156112a6576112a5611002565b5b602082029050602081019050919050565b600080fd5b6000604082840312156112d2576112d16112b7565b5b6112dc6040611062565b905060006112ec84828501610f91565b600083015250602061130084828501610f91565b60208301525092915050565b600061131f61131a8461128b565b611062565b90508083825260208201905060408402830185811115611342576113416110a9565b5b835b8181101561136b578061135788826112bc565b845260208401935050604081019050611344565b5050509392505050565b600082601f83011261138a57611389610ffd565b5b813561139a84826020860161130c565b91505092915050565b600080606083850312156113ba576113b9610d5e565b5b600083013567ffffffffffffffff8111156113d8576113d7610d63565b5b6113e485828601611375565b92505060206113f5858286016112bc565b9150509250929050565b61140881610f70565b82525050565b60408201600082015161142460008501826113ff565b50602082015161143760208501826113ff565b50505050565b6000819050919050565b6114508161143d565b82525050565b600060608201905061146b600083018561140e565b6114786040830184611447565b9392505050565b600067ffffffffffffffff82111561149a57611499611002565b5b602082029050602081019050919050565b6000608082840312156114c1576114c06112b7565b5b6114cb6080611062565b905060006114db84828501610f91565b60008301525060206114ef84828501610f91565b602083015250604061150384828501610f91565b604083015250606061151784828501610f91565b60608301525092915050565b60006115366115318461147f565b611062565b90508083825260208201905060808402830185811115611559576115586110a9565b5b835b81811015611582578061156e88826114ab565b84526020840193505060808101905061155b565b5050509392505050565b600082601f8301126115a1576115a0610ffd565b5b81356115b1848260208601611523565b91505092915050565b6000602082840312156115d0576115cf610d5e565b5b600082013567ffffffffffffffff8111156115ee576115ed610d63565b5b6115fa8482850161158c565b91505092915050565b600081519050919050565b600082825260208201905092915050565b6000819050602082019050919050565b60408201600082015161164560008501826113ff565b50602082015161165860208501826113ff565b50505050565b600061166a838361162f565b60408301905092915050565b6000602082019050919050565b600061168e82611603565b611698818561160e565b93506116a38361161f565b8060005b838110156116d45781516116bb888261165e565b97506116c683611676565b9250506001810190506116a7565b5085935050505092915050565b600060208201905081810360008301526116fb8184611683565b905092915050565b7f4e487b7100000000000000000000000000000000000000000000000000000000600052602260045260246000fd5b6000600282049050600182168061174a57607f821691505b60208210810361175d5761175c611703565b5b50919050565b600082825260208201905092915050565b7f4f776e61626c653a2063616c6c6572206973206e6f7420746865206f776e6572600082015250565b60006117aa602083611763565b91506117b582611774565b602082019050919050565b600060208201905081810360008301526117d98161179d565b9050919050565b7f4e487b7100000000000000000000000000000000000000000000000000000000600052603260045260246000fd5b7f4e487b7100000000000000000000000000000000000000000000000000000000600052601160045260246000fd5b60006118498261143d565b91507fffffffffffffffffffffffffffffffffffffffffffffffffffffffffffffffff820361187b5761187a61180f565b5b600182019050919050565b600081549050919050565b60008190508160005260206000209050919050565b60008190508160005260206000209050919050565b600081546118c881611732565b6118d28186610e2a565b945060018216600081146118ed57600181146118ff57611932565b60ff1983168652602086019350611932565b611908856118a6565b60005b8381101561192a5781548189015260018201915060208101905061190b565b808801955050505b50505092915050565b600061194783836118bb565b905092915050565b6000600182019050919050565b600061196782611886565b6119718185610dfe565b93508360208202850161198385611891565b8060005b858110156119be5784840389528161199f858261193b565b94506119aa8361194f565b925060208a01995050600181019050611987565b50829750879550505050505092915050565b60006060820190506119e56000830186611447565b81810360208301526119f78185610ed9565b90508181036040830152611a0b818461195c565b9050949350505050565b6000611a208261143d565b9150611a2b8361143d565b9250827fffffffffffffffffffffffffffffffffffffffffffffffffffffffffffffffff03821115611a6057611a5f61180f565b5b828201905092915050565b600081519050919050565b600082825260208201905092915050565b6000819050602082019050919050565b608082016000820151611aad60008501826113ff565b506020820151611ac060208501826113ff565b506040820151611ad360408501826113ff565b506060820151611ae660608501826113ff565b50505050565b6000611af88383611a97565b60808301905092915050565b6000602082019050919050565b6000611b1c82611a6b565b611b268185611a76565b9350611b3183611a87565b8060005b83811015611b62578151611b498882611aec565b9750611b5483611b04565b925050600181019050611b35565b5085935050505092915050565b60006020820190508181036000830152611b898184611b11565b905092915050565b7f4f776e61626c653a206e6577206f776e657220697320746865207a65726f206160008201527f6464726573730000000000000000000000000000000000000000000000000000602082015250565b6000611bed602683611763565b9150611bf882611b91565b604082019050919050565b60006020820190508181036000830152611c1c81611be0565b905091905056fea2646970667358221220f4ed96b96cdfe77b4177cb9ce46f81555b71d47bb3850a1052570f2e7141691c64736f6c634300080d0033",
  "immutableReferences": {},
  "source": "// SPDX-License-Identifier: GPL-3.0\r\npragma solidity >=0.7.0 <0.9.0;\r\nimport \"@openzeppelin/contracts/access/Ownable.sol\";\r\n\r\ncontract accessAuth is Ownable(){\r\n\r\n    struct updateData{\r\n        bytes32 from;\r\n        bytes32 to;\r\n        bytes32 token;\r\n        bytes32 label;\r\n    }\r\n\r\n    struct node{\r\n        bytes32 id;\r\n        bytes32 token;\r\n    }\r\n\r\n    mapping(bytes32 => node[]) catalogue;\r\n    mapping(address => string[]) capabilityList;\r\n    mapping(bytes32 => bytes32) labels;\r\n\r\n    event CapabilityListUpdated(\r\n        address indexed _buyer,\r\n        uint price,\r\n        string[] oldCababilityList,\r\n        string[] newCapabilityList\r\n    );\r\n\r\n    event UpdateData(updateData[]);\r\n\r\n\r\n    function buyResources(string[] memory _resources) external payable {\r\n        string[] memory oldCap = capabilityList[msg.sender];\r\n\r\n        for(uint i=0; i < _resources.length; i++){\r\n            capabilityList[msg.sender].push(_resources[i]); \r\n        }\r\n        \r\n        payable(owner()).transfer(msg.value);\r\n\r\n        emit CapabilityListUpdated(msg.sender, msg.value, oldCap,capabilityList[msg.sender]);\r\n    }\r\n\r\n    function updateCatalogue(updateData[] memory _updateData) onlyOwner() external{\r\n        node memory tempNode;\r\n        uint idx;\r\n\r\n        for(uint i=0; i < _updateData.length; i++){\r\n            bytes32 from = _updateData[i].from;\r\n            bytes32 to = _updateData[i].to;\r\n\r\n            tempNode.id = to;\r\n            tempNode.token = _updateData[i].token;\r\n            (tempNode,idx) = _updateElementsInNode(catalogue[from],tempNode);\r\n\r\n            if(idx > catalogue[from].length){\r\n                catalogue[from].push(tempNode);\r\n            }else{\r\n                catalogue[from][idx] = tempNode;\r\n            }\r\n\r\n            labels[to] = _updateData[i].label;\r\n        }\r\n\r\n        emit UpdateData(_updateData);\r\n    }\r\n\r\n\r\n    function _updateElementsInNode(node[] memory _node,node memory _data) public pure returns(node memory,uint){\r\n        for(uint i=0; i < _node.length; i++){\r\n            if(_node[i].id == _data.id){\r\n                _node[i].token = _data.token;\r\n                return (_data,i);\r\n            }\r\n        }\r\n\r\n        return (_data,_node.length+1);\r\n    }\r\n\r\n    function getCapabilityListByAddress(address _buyer) external view returns(string[] memory) {\r\n        return capabilityList[_buyer];\r\n    }\r\n\r\n    function getTokens(bytes32 _from) external view returns(node[] memory){\r\n        return catalogue[_from];\r\n    }\r\n\r\n    function getLabel(bytes32 _edge) external view returns(bytes32){\r\n        return labels[_edge];\r\n    }\r\n\r\n\r\n}",
  "sourcePath": "D:\\Users\\richi\\Desktop\\DataMarketplace\\smart-contract\\contracts\\accessAuth.sol",
  "compiler": {
    "name": "solc",
    "version": "0.8.13+commit.abaa5c0e.Emscripten.clang"
  },
  "schemaVersion": "3.4.7",
  "updatedAt": "2022-04-29T12:55:19.542Z",
  "devdoc": {
    "kind": "dev",
    "methods": {
      "owner()": {
        "details": "Returns the address of the current owner."
      },
      "renounceOwnership()": {
        "details": "Leaves the contract without owner. It will not be possible to call `onlyOwner` functions anymore. Can only be called by the current owner. NOTE: Renouncing ownership will leave the contract without an owner, thereby removing any functionality that is only available to the owner."
      },
      "transferOwnership(address)": {
        "details": "Transfers ownership of the contract to a new account (`newOwner`). Can only be called by the current owner."
      }
    },
    "version": 1
  },
  "userdoc": {
    "kind": "user",
    "methods": {},
    "version": 1
  }
}