{
  "contractName": "accessAuth",
  "abi": [
    {
      "anonymous": false,
      "inputs": [
        {
          "indexed": true,
          "internalType": "address",
          "name": "_buyer",
          "type": "address"
        },
        {
          "indexed": false,
          "internalType": "uint256",
          "name": "price",
          "type": "uint256"
        },
        {
          "indexed": false,
          "internalType": "string[]",
          "name": "BoughtResources",
          "type": "string[]"
        }
      ],
      "name": "CapabilityListUpdated",
      "type": "event"
    },
    {
      "anonymous": false,
      "inputs": [
        {
          "indexed": true,
          "internalType": "address",
          "name": "previousOwner",
          "type": "address"
        },
        {
          "indexed": true,
          "internalType": "address",
          "name": "newOwner",
          "type": "address"
        }
      ],
      "name": "OwnershipTransferred",
      "type": "event"
    },
    {
      "anonymous": false,
      "inputs": [
        {
          "indexed": false,
          "internalType": "bytes32",
          "name": "KDS_Hash",
          "type": "bytes32"
        }
      ],
      "name": "UpdateKDS",
      "type": "event"
    },
    {
      "inputs": [],
      "name": "owner",
      "outputs": [
        {
          "internalType": "address",
          "name": "",
          "type": "address"
        }
      ],
      "stateMutability": "view",
      "type": "function"
    },
    {
      "inputs": [],
      "name": "renounceOwnership",
      "outputs": [],
      "stateMutability": "nonpayable",
      "type": "function"
    },
    {
      "inputs": [
        {
          "internalType": "address",
          "name": "newOwner",
          "type": "address"
        }
      ],
      "name": "transferOwnership",
      "outputs": [],
      "stateMutability": "nonpayable",
      "type": "function"
    },
    {
      "inputs": [
        {
          "internalType": "string[]",
          "name": "_resources",
          "type": "string[]"
        }
      ],
      "name": "buyResources",
      "outputs": [],
      "stateMutability": "payable",
      "type": "function"
    },
    {
      "inputs": [
        {
          "internalType": "bytes32",
          "name": "_newKDS_Hash",
          "type": "bytes32"
        }
      ],
      "name": "updateKDS_Hash",
      "outputs": [],
      "stateMutability": "nonpayable",
      "type": "function"
    },
    {
      "inputs": [
        {
          "internalType": "address",
          "name": "_buyer",
          "type": "address"
        }
      ],
      "name": "getCapabilityListByAddress",
      "outputs": [
        {
          "internalType": "string[]",
          "name": "",
          "type": "string[]"
        }
      ],
      "stateMutability": "view",
      "type": "function"
    }
  ],
  "bytecode": "0x608060405234801561001057600080fd5b5061002d61002261003260201b60201c565b61003a60201b60201c565b6100fe565b600033905090565b60008060009054906101000a900473ffffffffffffffffffffffffffffffffffffffff169050816000806101000a81548173ffffffffffffffffffffffffffffffffffffffff021916908373ffffffffffffffffffffffffffffffffffffffff1602179055508173ffffffffffffffffffffffffffffffffffffffff168173ffffffffffffffffffffffffffffffffffffffff167f8be0079c531659141344cd1fd0a4f28419497f9722a3daafe3b4186f6b6457e060405160405180910390a35050565b610f588061010d6000396000f3fe6080604052600436106100555760003560e01c806306e537091461005a578063357a295d14610097578063715018a6146100c05780637c52f1b5146100d75780638da5cb5b146100f3578063f2fde38b1461011e575b600080fd5b34801561006657600080fd5b50610081600480360381019061007c91906107ff565b610147565b60405161008e9190610987565b60405180910390f35b3480156100a357600080fd5b506100be60048036038101906100b991906109df565b61025f565b005b3480156100cc57600080fd5b506100d561031c565b005b6100f160048036038101906100ec9190610c27565b6103a4565b005b3480156100ff57600080fd5b506101086104fe565b6040516101159190610c7f565b60405180910390f35b34801561012a57600080fd5b50610145600480360381019061014091906107ff565b610527565b005b6060600260008373ffffffffffffffffffffffffffffffffffffffff1673ffffffffffffffffffffffffffffffffffffffff168152602001908152602001600020805480602002602001604051908101604052809291908181526020016000905b828210156102545783829060005260206000200180546101c790610cc9565b80601f01602080910402602001604051908101604052809291908181526020018280546101f390610cc9565b80156102405780601f1061021557610100808354040283529160200191610240565b820191906000526020600020905b81548152906001019060200180831161022357829003601f168201915b5050505050815260200190600101906101a8565b505050509050919050565b61026761061e565b73ffffffffffffffffffffffffffffffffffffffff166102856104fe565b73ffffffffffffffffffffffffffffffffffffffff16146102db576040517f08c379a00000000000000000000000000000000000000000000000000000000081526004016102d290610d57565b60405180910390fd5b806001819055507f91a43dd8cda4124eb0dfe2c2ca33471e78026944cb38b87fa5a530e29b55b864816040516103119190610d86565b60405180910390a150565b61032461061e565b73ffffffffffffffffffffffffffffffffffffffff166103426104fe565b73ffffffffffffffffffffffffffffffffffffffff1614610398576040517f08c379a000000000000000000000000000000000000000000000000000000000815260040161038f90610d57565b60405180910390fd5b6103a26000610626565b565b60008151905060005b8181101561045b57600260003373ffffffffffffffffffffffffffffffffffffffff1673ffffffffffffffffffffffffffffffffffffffff16815260200190815260200160002083828151811061040757610406610da1565b5b60200260200101519080600181540180825580915050600190039060005260206000200160009091909190915090805190602001906104479291906106ea565b50808061045390610e09565b9150506103ad565b506104646104fe565b73ffffffffffffffffffffffffffffffffffffffff166108fc349081150290604051600060405180830381858888f193505050501580156104a9573d6000803e3d6000fd5b503373ffffffffffffffffffffffffffffffffffffffff167f126415ed4f65b665b44f25dacca1fdd7917295e2b4d3bb67d08775ab5f3e646e34846040516104f2929190610e60565b60405180910390a25050565b60008060009054906101000a900473ffffffffffffffffffffffffffffffffffffffff16905090565b61052f61061e565b73ffffffffffffffffffffffffffffffffffffffff1661054d6104fe565b73ffffffffffffffffffffffffffffffffffffffff16146105a3576040517f08c379a000000000000000000000000000000000000000000000000000000000815260040161059a90610d57565b60405180910390fd5b600073ffffffffffffffffffffffffffffffffffffffff168173ffffffffffffffffffffffffffffffffffffffff1603610612576040517f08c379a000000000000000000000000000000000000000000000000000000000815260040161060990610f02565b60405180910390fd5b61061b81610626565b50565b600033905090565b60008060009054906101000a900473ffffffffffffffffffffffffffffffffffffffff169050816000806101000a81548173ffffffffffffffffffffffffffffffffffffffff021916908373ffffffffffffffffffffffffffffffffffffffff1602179055508173ffffffffffffffffffffffffffffffffffffffff168173ffffffffffffffffffffffffffffffffffffffff167f8be0079c531659141344cd1fd0a4f28419497f9722a3daafe3b4186f6b6457e060405160405180910390a35050565b8280546106f690610cc9565b90600052602060002090601f016020900481019282610718576000855561075f565b82601f1061073157805160ff191683800117855561075f565b8280016001018555821561075f579182015b8281111561075e578251825591602001919060010190610743565b5b50905061076c9190610770565b5090565b5b80821115610789576000816000905550600101610771565b5090565b6000604051905090565b600080fd5b600080fd5b600073ffffffffffffffffffffffffffffffffffffffff82169050919050565b60006107cc826107a1565b9050919050565b6107dc816107c1565b81146107e757600080fd5b50565b6000813590506107f9816107d3565b92915050565b60006020828403121561081557610814610797565b5b6000610823848285016107ea565b91505092915050565b600081519050919050565b600082825260208201905092915050565b6000819050602082019050919050565b600081519050919050565b600082825260208201905092915050565b60005b83811015610892578082015181840152602081019050610877565b838111156108a1576000848401525b50505050565b6000601f19601f8301169050919050565b60006108c382610858565b6108cd8185610863565b93506108dd818560208601610874565b6108e6816108a7565b840191505092915050565b60006108fd83836108b8565b905092915050565b6000602082019050919050565b600061091d8261082c565b6109278185610837565b93508360208202850161093985610848565b8060005b85811015610975578484038952815161095685826108f1565b945061096183610905565b925060208a0199505060018101905061093d565b50829750879550505050505092915050565b600060208201905081810360008301526109a18184610912565b905092915050565b6000819050919050565b6109bc816109a9565b81146109c757600080fd5b50565b6000813590506109d9816109b3565b92915050565b6000602082840312156109f5576109f4610797565b5b6000610a03848285016109ca565b91505092915050565b600080fd5b7f4e487b7100000000000000000000000000000000000000000000000000000000600052604160045260246000fd5b610a49826108a7565b810181811067ffffffffffffffff82111715610a6857610a67610a11565b5b80604052505050565b6000610a7b61078d565b9050610a878282610a40565b919050565b600067ffffffffffffffff821115610aa757610aa6610a11565b5b602082029050602081019050919050565b600080fd5b600080fd5b600067ffffffffffffffff821115610add57610adc610a11565b5b610ae6826108a7565b9050602081019050919050565b82818337600083830152505050565b6000610b15610b1084610ac2565b610a71565b905082815260208101848484011115610b3157610b30610abd565b5b610b3c848285610af3565b509392505050565b600082601f830112610b5957610b58610a0c565b5b8135610b69848260208601610b02565b91505092915050565b6000610b85610b8084610a8c565b610a71565b90508083825260208201905060208402830185811115610ba857610ba7610ab8565b5b835b81811015610bef57803567ffffffffffffffff811115610bcd57610bcc610a0c565b5b808601610bda8982610b44565b85526020850194505050602081019050610baa565b5050509392505050565b600082601f830112610c0e57610c0d610a0c565b5b8135610c1e848260208601610b72565b91505092915050565b600060208284031215610c3d57610c3c610797565b5b600082013567ffffffffffffffff811115610c5b57610c5a61079c565b5b610c6784828501610bf9565b91505092915050565b610c79816107c1565b82525050565b6000602082019050610c946000830184610c70565b92915050565b7f4e487b7100000000000000000000000000000000000000000000000000000000600052602260045260246000fd5b60006002820490506001821680610ce157607f821691505b602082108103610cf457610cf3610c9a565b5b50919050565b600082825260208201905092915050565b7f4f776e61626c653a2063616c6c6572206973206e6f7420746865206f776e6572600082015250565b6000610d41602083610cfa565b9150610d4c82610d0b565b602082019050919050565b60006020820190508181036000830152610d7081610d34565b9050919050565b610d80816109a9565b82525050565b6000602082019050610d9b6000830184610d77565b92915050565b7f4e487b7100000000000000000000000000000000000000000000000000000000600052603260045260246000fd5b7f4e487b7100000000000000000000000000000000000000000000000000000000600052601160045260246000fd5b6000819050919050565b6000610e1482610dff565b91507fffffffffffffffffffffffffffffffffffffffffffffffffffffffffffffffff8203610e4657610e45610dd0565b5b600182019050919050565b610e5a81610dff565b82525050565b6000604082019050610e756000830185610e51565b8181036020830152610e878184610912565b90509392505050565b7f4f776e61626c653a206e6577206f776e657220697320746865207a65726f206160008201527f6464726573730000000000000000000000000000000000000000000000000000602082015250565b6000610eec602683610cfa565b9150610ef782610e90565b604082019050919050565b60006020820190508181036000830152610f1b81610edf565b905091905056fea26469706673582212206d832bd32811040b71b18836d6f26ae8b7ec90ca3fec3c6583618204d8046d1864736f6c634300080d0033",
  "immutableReferences": {},
  "source": "// SPDX-License-Identifier: GPL-3.0\r\npragma solidity >=0.7.0 <0.9.0;\r\nimport \"@openzeppelin/contracts/access/Ownable.sol\";\r\n\r\ncontract accessAuth is Ownable(){\r\n\r\n    bytes32 KDS_Hash;\r\n    mapping(address => string[]) capabilityList;\r\n\r\n    event CapabilityListUpdated(\r\n        address indexed _buyer,\r\n        uint price,\r\n        string[] BoughtResources\r\n    );\r\n\r\n    event UpdateKDS(bytes32 KDS_Hash);\r\n\r\n\r\n    /** \r\n       @notice Updates a user's capability list (after a payment) adding the new purchased resources to the list. The ETH tokens are directly transfered to the owner of the contract. The capability list is a list of strings where a string identifies a resource\r\n       @param _resources List of strings\r\n    */\r\n    function buyResources(string[] memory _resources) external payable {\r\n        //string[] memory oldCap = capabilityList[msg.sender];\r\n        uint arrayLen = _resources.length;\r\n        for(uint i=0; i < arrayLen; i++){\r\n            capabilityList[msg.sender].push(_resources[i]); \r\n        }\r\n        \r\n        payable(owner()).transfer(msg.value);\r\n\r\n        emit CapabilityListUpdated(msg.sender, msg.value,_resources);\r\n    }\r\n\r\n\r\n    /**\r\n        @notice Updates the KDS's hash\r\n        @param _newKDS_Hash Hash of the updated KDS\r\n     */\r\n    function updateKDS_Hash(bytes32 _newKDS_Hash) onlyOwner() external{\r\n        KDS_Hash = _newKDS_Hash;\r\n        emit UpdateKDS(_newKDS_Hash);\r\n    }\r\n\r\n    function getCapabilityListByAddress(address _buyer) external view returns(string[] memory) {\r\n        return capabilityList[_buyer];\r\n    }\r\n\r\n\r\n}",
  "sourcePath": "D:\\Users\\richi\\Desktop\\DataMarketplace\\smart-contract\\contracts\\accessAuth.sol",
  "compiler": {
    "name": "solc",
    "version": "0.8.13+commit.abaa5c0e.Emscripten.clang"
  },
  "schemaVersion": "3.4.7",
  "updatedAt": "2022-05-25T20:11:54.420Z",
  "devdoc": {
    "kind": "dev",
    "methods": {
      "buyResources(string[])": {
        "params": {
          "_resources": "List of strings"
        }
      },
      "owner()": {
        "details": "Returns the address of the current owner."
      },
      "renounceOwnership()": {
        "details": "Leaves the contract without owner. It will not be possible to call `onlyOwner` functions anymore. Can only be called by the current owner. NOTE: Renouncing ownership will leave the contract without an owner, thereby removing any functionality that is only available to the owner."
      },
      "transferOwnership(address)": {
        "details": "Transfers ownership of the contract to a new account (`newOwner`). Can only be called by the current owner."
      },
      "updateKDS_Hash(bytes32)": {
        "params": {
          "_newKDS_Hash": "Hash of the updated KDS"
        }
      }
    },
    "version": 1
  },
  "userdoc": {
    "kind": "user",
    "methods": {
      "buyResources(string[])": {
        "notice": "Updates a user's capability list (after a payment) adding the new purchased resources to the list. The ETH tokens are directly transfered to the owner of the contract. The capability list is a list of strings where a string identifies a resource"
      },
      "updateKDS_Hash(bytes32)": {
        "notice": "Updates the KDS's hash"
      }
    },
    "version": 1
  }
}